{
    "abi": [
        {
            "inputs": [
                {
                    "internalType": "uint256",
                    "name": "x",
                    "type": "uint256"
                }
            ],
            "stateMutability": "nonpayable",
            "type": "constructor"
        },
        {
            "inputs": [],
            "name": "bar",
            "outputs": [],
            "stateMutability": "nonpayable",
            "type": "function"
        },
        {
            "inputs": [
                {
                    "internalType": "uint256",
                    "name": "newNumber",
                    "type": "uint256"
                }
            ],
            "name": "foo",
            "outputs": [],
            "stateMutability": "nonpayable",
            "type": "function"
        },
        {
            "inputs": [],
            "name": "immutable1",
            "outputs": [
                {
                    "internalType": "uint256",
                    "name": "",
                    "type": "uint256"
                }
            ],
            "stateMutability": "view",
            "type": "function"
        },
        {
            "inputs": [],
            "name": "immutable2",
            "outputs": [
                {
                    "internalType": "uint256",
                    "name": "",
                    "type": "uint256"
                }
            ],
            "stateMutability": "view",
            "type": "function"
        },
        {
            "inputs": [],
            "name": "number",
            "outputs": [
                {
                    "internalType": "uint256",
                    "name": "",
                    "type": "uint256"
                }
            ],
            "stateMutability": "view",
            "type": "function"
        }
    ],
    "bytecode": {
        "object": "0x60c060405234801561001057600080fd5b506040516102f73803806102f783398101604081905261002f91610048565b608081905261003f81600261007a565b60a0525061009d565b60006020828403121561005d5761005d600080fd5b5051919050565b634e487b7160e01b600052601160045260246000fd5b818102818382821583820483141761009457610094610064565b50505092915050565b60805160a0516102236100d460003960008181607101528181610118015261014f01526000818160c8015260f401526102236000f3fe608060405234801561001057600080fd5b50600436106100675760003560e01c80638381f58a116100505780638381f58a146100ba578063a3803a56146100c3578063febb0f7e146100ea57600080fd5b80632ae83fa41461006c5780632fbebd38146100a5575b600080fd5b6100937f000000000000000000000000000000000000000000000000000000000000000081565b60405190815260200160405180910390f35b6100b86100b3366004610185565b6100f2565b005b61009360005481565b6100937f000000000000000000000000000000000000000000000000000000000000000081565b6100b861014d565b7f000000000000000000000000000000000000000000000000000000000000000061013d7f0000000000000000000000000000000000000000000000000000000000000000836101d0565b61014791906101d0565b60005550565b7f000000000000000000000000000000000000000000000000000000000000000060008082825461017e91906101d0565b9091555050565b60006020828403121561019a5761019a600080fd5b5035919050565b7f4e487b7100000000000000000000000000000000000000000000000000000000600052601160045260246000fd5b8181018181808211156101e5576101e56101a1565b50509291505056fea264697066735822122036099b69db89ccd11027ada8bf7876805bfd4631ca59d111cf53ab100cd2ce3664736f6c63430008150033",
        "linkReferences": {}
    },
    "methodIdentifiers": {
        "bar()": "febb0f7e",
        "foo(uint256)": "2fbebd38",
        "immutable1()": "a3803a56",
        "immutable2()": "2ae83fa4",
        "number()": "8381f58a"
    },
    "id": 0
}