{
    "abi": [
        {
            "inputs": [
                {
                    "internalType": "uint256",
                    "name": "_a",
                    "type": "uint256"
                },
                {
                    "internalType": "bool",
                    "name": "_b",
                    "type": "bool"
                },
                {
                    "internalType": "uint192",
                    "name": "_c",
                    "type": "uint192"
                }
            ],
            "stateMutability": "nonpayable",
            "type": "constructor"
        },
        {
            "inputs": [],
            "name": "a",
            "outputs": [
                {
                    "internalType": "uint256",
                    "name": "",
                    "type": "uint256"
                }
            ],
            "stateMutability": "view",
            "type": "function"
        },
        {
            "inputs": [],
            "name": "b",
            "outputs": [
                {
                    "internalType": "bool",
                    "name": "",
                    "type": "bool"
                }
            ],
            "stateMutability": "view",
            "type": "function"
        },
        {
            "inputs": [],
            "name": "c",
            "outputs": [
                {
                    "internalType": "uint192",
                    "name": "",
                    "type": "uint192"
                }
            ],
            "stateMutability": "view",
            "type": "function"
        }
    ],
    "bytecode": {
        "object": "0x60e060405234801561001057600080fd5b5060405161029338038061029383398101604081905261002f9161009d565b608092909252151560a0526001600160c01b031660c0526100e6565b805b811461005857600080fd5b50565b8051806100678161004b565b5092915050565b80151561004d565b8051806100678161006e565b6001600160c01b03811661004d565b80518061006781610082565b6000806000606084860312156100b5576100b5600080fd5b6100bf858561005b565b92506100ce8560208601610076565b91506100dd8560408601610091565b90509250925092565b60805160a05160c051610181610112600039600060bc01526000608801526000604b01526101816000f3fe608060405234801561001057600080fd5b50600436106100415760003560e01c80630dbe671f146100465780634df7e3d014610083578063c3da42b8146100b7575b600080fd5b61006d7f000000000000000000000000000000000000000000000000000000000000000081565b60405161007a91906100f3565b60405180910390f35b6100aa7f000000000000000000000000000000000000000000000000000000000000000081565b60405161007a919061010f565b6100de7f000000000000000000000000000000000000000000000000000000000000000081565b60405161007a919061013d565b805b82525050565b6020810161010182846100eb565b92915050565b8015156100ed565b602081016101018284610107565b77ffffffffffffffffffffffffffffffffffffffffffffffff81166100ed565b60208101610101828461011d56fea26469706673582212204642290fe8a728120bf1d35c38ab3b085c3a61b7c8549552455c7446e6be760a64736f6c63430008150033",
        "linkReferences": {}
    },
    "methodIdentifiers": {
        "a()": "0dbe671f",
        "b()": "4df7e3d0",
        "c()": "c3da42b8"
    },
    "id": 0
}