{
  "abi": [
    {
      "inputs": [],
      "name": "secret",
      "outputs": [
        {
          "internalType": "uint256",
          "name": "",
          "type": "uint256"
        }
      ],
      "stateMutability": "view",
      "type": "function"
    }
  ],
  "bytecode": {
    "object": "0x6080604052348015600f57600080fd5b50607c8061001e6000396000f3fe6080604052348015600f57600080fd5b506004361060285760003560e01c8063d1efd30d14602d575b600080fd5b6034602a81565b60405190815260200160405180910390f3fea26469706673582212206740fcc626175d58a151da7fbfca1775ea4d3ababf7f3168347dab89488f6a4264736f6c634300080a0033",
    "linkReferences": {}
  }
}