{
  "_format": "hh-sol-artifact-1",
  "contractName": "Enscribe",
  "sourceName": "src/main/solidity/Enscribe.sol",
  "abi": [
    {
      "inputs": [
        {
          "internalType": "address",
          "name": "_reverseRegistrar",
          "type": "address"
        },
        {
          "internalType": "address",
          "name": "_ensRegistry",
          "type": "address"
        },
        {
          "internalType": "address",
          "name": "_nameWrapper",
          "type": "address"
        },
        {
          "internalType": "string",
          "name": "_defaultParent",
          "type": "string"
        },
        {
          "internalType": "uint256",
          "name": "_pricing",
          "type": "uint256"
        }
      ],
      "stateMutability": "nonpayable",
      "type": "constructor"
    },
    {
      "inputs": [
        {
          "internalType": "address",
          "name": "owner",
          "type": "address"
        }
      ],
      "name": "OwnableInvalidOwner",
      "type": "error"
    },
    {
      "inputs": [
        {
          "internalType": "address",
          "name": "account",
          "type": "address"
        }
      ],
      "name": "OwnableUnauthorizedAccount",
      "type": "error"
    },
    {
      "anonymous": false,
      "inputs": [
        {
          "indexed": false,
          "internalType": "address",
          "name": "contractAddress",
          "type": "address"
        }
      ],
      "name": "ContractDeployed",
      "type": "event"
    },
    {
      "anonymous": false,
      "inputs": [
        {
          "indexed": false,
          "internalType": "address",
          "name": "deployedAddress",
          "type": "address"
        },
        {
          "indexed": false,
          "internalType": "address",
          "name": "owner",
          "type": "address"
        }
      ],
      "name": "ContractOwnershipTransferred",
      "type": "event"
    },
    {
      "anonymous": false,
      "inputs": [
        {
          "indexed": false,
          "internalType": "address",
          "name": "sender",
          "type": "address"
        },
        {
          "indexed": false,
          "internalType": "uint256",
          "name": "amount",
          "type": "uint256"
        }
      ],
      "name": "EtherReceived",
      "type": "event"
    },
    {
      "anonymous": false,
      "inputs": [
        {
          "indexed": true,
          "internalType": "address",
          "name": "previousOwner",
          "type": "address"
        },
        {
          "indexed": true,
          "internalType": "address",
          "name": "newOwner",
          "type": "address"
        }
      ],
      "name": "OwnershipTransferred",
      "type": "event"
    },
    {
      "anonymous": false,
      "inputs": [
        {
          "indexed": true,
          "internalType": "address",
          "name": "contractAddress",
          "type": "address"
        },
        {
          "indexed": false,
          "internalType": "string",
          "name": "subname",
          "type": "string"
        }
      ],
      "name": "SetAddrSuccess",
      "type": "event"
    },
    {
      "anonymous": false,
      "inputs": [
        {
          "indexed": true,
          "internalType": "address",
          "name": "deployedAddress",
          "type": "address"
        },
        {
          "indexed": false,
          "internalType": "string",
          "name": "subname",
          "type": "string"
        }
      ],
      "name": "SetPrimaryNameSuccess",
      "type": "event"
    },
    {
      "anonymous": false,
      "inputs": [
        {
          "indexed": false,
          "internalType": "bytes32",
          "name": "parentHash",
          "type": "bytes32"
        },
        {
          "indexed": false,
          "internalType": "string",
          "name": "label",
          "type": "string"
        }
      ],
      "name": "SubnameCreated",
      "type": "event"
    },
    {
      "stateMutability": "payable",
      "type": "fallback"
    },
    {
      "inputs": [
        {
          "internalType": "bytes32",
          "name": "node",
          "type": "bytes32"
        }
      ],
      "name": "checkWrapped",
      "outputs": [
        {
          "internalType": "bool",
          "name": "",
          "type": "bool"
        }
      ],
      "stateMutability": "view",
      "type": "function"
    },
    {
      "inputs": [
        {
          "internalType": "uint256",
          "name": "salt",
          "type": "uint256"
        },
        {
          "internalType": "bytes",
          "name": "bytecode",
          "type": "bytes"
        }
      ],
      "name": "computeAddress",
      "outputs": [
        {
          "internalType": "address",
          "name": "",
          "type": "address"
        }
      ],
      "stateMutability": "view",
      "type": "function"
    },
    {
      "inputs": [],
      "name": "defaultParent",
      "outputs": [
        {
          "internalType": "string",
          "name": "",
          "type": "string"
        }
      ],
      "stateMutability": "view",
      "type": "function"
    },
    {
      "inputs": [],
      "name": "ensRegistry",
      "outputs": [
        {
          "internalType": "contract IENSRegistry",
          "name": "",
          "type": "address"
        }
      ],
      "stateMutability": "view",
      "type": "function"
    },
    {
      "inputs": [],
      "name": "nameWrapper",
      "outputs": [
        {
          "internalType": "contract INameWrapper",
          "name": "",
          "type": "address"
        }
      ],
      "stateMutability": "view",
      "type": "function"
    },
    {
      "inputs": [
        {
          "internalType": "address",
          "name": "",
          "type": "address"
        },
        {
          "internalType": "address",
          "name": "",
          "type": "address"
        },
        {
          "internalType": "uint256[]",
          "name": "",
          "type": "uint256[]"
        },
        {
          "internalType": "uint256[]",
          "name": "",
          "type": "uint256[]"
        },
        {
          "internalType": "bytes",
          "name": "",
          "type": "bytes"
        }
      ],
      "name": "onERC1155BatchReceived",
      "outputs": [
        {
          "internalType": "bytes4",
          "name": "",
          "type": "bytes4"
        }
      ],
      "stateMutability": "pure",
      "type": "function"
    },
    {
      "inputs": [
        {
          "internalType": "address",
          "name": "",
          "type": "address"
        },
        {
          "internalType": "address",
          "name": "",
          "type": "address"
        },
        {
          "internalType": "uint256",
          "name": "",
          "type": "uint256"
        },
        {
          "internalType": "uint256",
          "name": "",
          "type": "uint256"
        },
        {
          "internalType": "bytes",
          "name": "",
          "type": "bytes"
        }
      ],
      "name": "onERC1155Received",
      "outputs": [
        {
          "internalType": "bytes4",
          "name": "",
          "type": "bytes4"
        }
      ],
      "stateMutability": "pure",
      "type": "function"
    },
    {
      "inputs": [],
      "name": "owner",
      "outputs": [
        {
          "internalType": "address",
          "name": "",
          "type": "address"
        }
      ],
      "stateMutability": "view",
      "type": "function"
    },
    {
      "inputs": [],
      "name": "pricing",
      "outputs": [
        {
          "internalType": "uint256",
          "name": "",
          "type": "uint256"
        }
      ],
      "stateMutability": "view",
      "type": "function"
    },
    {
      "inputs": [],
      "name": "renounceOwnership",
      "outputs": [],
      "stateMutability": "nonpayable",
      "type": "function"
    },
    {
      "inputs": [],
      "name": "reverseRegistrar",
      "outputs": [
        {
          "internalType": "contract IReverseRegistrar",
          "name": "",
          "type": "address"
        }
      ],
      "stateMutability": "view",
      "type": "function"
    },
    {
      "inputs": [
        {
          "internalType": "address",
          "name": "_addr",
          "type": "address"
        }
      ],
      "name": "setENSRegistry",
      "outputs": [],
      "stateMutability": "nonpayable",
      "type": "function"
    },
    {
      "inputs": [
        {
          "internalType": "address",
          "name": "contractAddress",
          "type": "address"
        },
        {
          "internalType": "string",
          "name": "label",
          "type": "string"
        },
        {
          "internalType": "string",
          "name": "parentName",
          "type": "string"
        },
        {
          "internalType": "bytes32",
          "name": "parentNode",
          "type": "bytes32"
        }
      ],
      "name": "setName",
      "outputs": [
        {
          "internalType": "bool",
          "name": "success",
          "type": "bool"
        }
      ],
      "stateMutability": "payable",
      "type": "function"
    },
    {
      "inputs": [
        {
          "internalType": "bytes",
          "name": "bytecode",
          "type": "bytes"
        },
        {
          "internalType": "string",
          "name": "label",
          "type": "string"
        },
        {
          "internalType": "string",
          "name": "parentName",
          "type": "string"
        },
        {
          "internalType": "bytes32",
          "name": "parentNode",
          "type": "bytes32"
        }
      ],
      "name": "setNameAndDeploy",
      "outputs": [
        {
          "internalType": "address",
          "name": "deployedAddress",
          "type": "address"
        }
      ],
      "stateMutability": "payable",
      "type": "function"
    },
    {
      "inputs": [
        {
          "internalType": "bytes",
          "name": "bytecode",
          "type": "bytes"
        },
        {
          "internalType": "string",
          "name": "label",
          "type": "string"
        },
        {
          "internalType": "string",
          "name": "parentName",
          "type": "string"
        },
        {
          "internalType": "bytes32",
          "name": "parentNode",
          "type": "bytes32"
        }
      ],
      "name": "setNameAndDeployReverseClaimer",
      "outputs": [
        {
          "internalType": "address",
          "name": "deployedAddress",
          "type": "address"
        }
      ],
      "stateMutability": "payable",
      "type": "function"
    },
    {
      "inputs": [
        {
          "internalType": "bytes",
          "name": "bytecode",
          "type": "bytes"
        },
        {
          "internalType": "string",
          "name": "label",
          "type": "string"
        },
        {
          "internalType": "string",
          "name": "parentName",
          "type": "string"
        },
        {
          "internalType": "bytes32",
          "name": "parentNode",
          "type": "bytes32"
        }
      ],
      "name": "setNameAndDeployReverseSetter",
      "outputs": [
        {
          "internalType": "address",
          "name": "deployedAddress",
          "type": "address"
        }
      ],
      "stateMutability": "payable",
      "type": "function"
    },
    {
      "inputs": [
        {
          "internalType": "bytes",
          "name": "bytecode",
          "type": "bytes"
        },
        {
          "internalType": "string",
          "name": "ensName",
          "type": "string"
        },
        {
          "internalType": "bytes32",
          "name": "node",
          "type": "bytes32"
        }
      ],
      "name": "setNameAndDeployWithoutLabel",
      "outputs": [
        {
          "internalType": "address",
          "name": "deployedAddress",
          "type": "address"
        }
      ],
      "stateMutability": "payable",
      "type": "function"
    },
    {
      "inputs": [
        {
          "internalType": "address",
          "name": "_addr",
          "type": "address"
        }
      ],
      "name": "setNameWrapper",
      "outputs": [],
      "stateMutability": "nonpayable",
      "type": "function"
    },
    {
      "inputs": [
        {
          "internalType": "address",
          "name": "_addr",
          "type": "address"
        }
      ],
      "name": "setReverseRegistrar",
      "outputs": [],
      "stateMutability": "nonpayable",
      "type": "function"
    },
    {
      "inputs": [
        {
          "internalType": "bytes4",
          "name": "interfaceId",
          "type": "bytes4"
        }
      ],
      "name": "supportsInterface",
      "outputs": [
        {
          "internalType": "bool",
          "name": "",
          "type": "bool"
        }
      ],
      "stateMutability": "pure",
      "type": "function"
    },
    {
      "inputs": [
        {
          "internalType": "address",
          "name": "newOwner",
          "type": "address"
        }
      ],
      "name": "transferOwnership",
      "outputs": [],
      "stateMutability": "nonpayable",
      "type": "function"
    },
    {
      "inputs": [
        {
          "internalType": "string",
          "name": "newParent",
          "type": "string"
        }
      ],
      "name": "updateDefaultParent",
      "outputs": [],
      "stateMutability": "nonpayable",
      "type": "function"
    },
    {
      "inputs": [
        {
          "internalType": "uint256",
          "name": "newPrice",
          "type": "uint256"
        }
      ],
      "name": "updatePricing",
      "outputs": [],
      "stateMutability": "nonpayable",
      "type": "function"
    },
    {
      "inputs": [],
      "name": "withdraw",
      "outputs": [],
      "stateMutability": "nonpayable",
      "type": "function"
    },
    {
      "stateMutability": "payable",
      "type": "receive"
    }
  ],
  "bytecode": "60806040523480156200001157600080fd5b506040516200282a3803806200282a833981016040819052620000349162000144565b33806200005b57604051631e4fbdf760e01b81526000600482015260240160405180910390fd5b6200006681620000c1565b50600180546001600160a01b038088166001600160a01b0319928316179092556002805487841690831617905560038054928616929091169190911790556005620000b28382620002ec565b5060045550620003b892505050565b600080546001600160a01b038381166001600160a01b0319831681178455604051919092169283917f8be0079c531659141344cd1fd0a4f28419497f9722a3daafe3b4186f6b6457e09190a35050565b80516001600160a01b03811681146200012957600080fd5b919050565b634e487b7160e01b600052604160045260246000fd5b600080600080600060a086880312156200015d57600080fd5b620001688662000111565b945060206200017981880162000111565b9450620001896040880162000111565b60608801519094506001600160401b0380821115620001a757600080fd5b818901915089601f830112620001bc57600080fd5b815181811115620001d157620001d16200012e565b604051601f8201601f19908116603f01168101908382118183101715620001fc57620001fc6200012e565b816040528281528c868487010111156200021557600080fd5b600093505b828410156200023957848401860151818501870152928501926200021a565b6000868483010152809750505050505050608086015190509295509295909350565b600181811c908216806200027057607f821691505b6020821081036200029157634e487b7160e01b600052602260045260246000fd5b50919050565b601f821115620002e7576000816000526020600020601f850160051c81016020861015620002c25750805b601f850160051c820191505b81811015620002e357828155600101620002ce565b5050505b505050565b81516001600160401b038111156200030857620003086200012e565b62000320816200031984546200025b565b8462000297565b602080601f8311600181146200035857600084156200033f5750858301515b600019600386901b1c1916600185901b178555620002e3565b600085815260208120601f198616915b82811015620003895788860151825594840194600190910190840162000368565b5085821015620003a85787850151600019600388901b60f8161c191681555b5050505050600190811b01905550565b61246280620003c86000396000f3fe60806040526004361061014f5760003560e01c80637d73b231116100b6578063a8e5fbc01161006f578063a8e5fbc0146103c7578063acd71554146103e7578063bc197c81146103fa578063e7d4fe7514610442578063f23a6e6114610464578063f2fde38b146104915761017d565b80637d73b231146103165780637ed7e08c14610336578063808698531461034957806385987217146103695780638975491f146103895780638da5cb5b146103a95761017d565b8063557499ba11610108578063557499ba146102775780635a0dac49146102975780635e3e940f146102aa578063715018a6146102bd57806379293fbe146102d25780637ce91411146102f25761017d565b806301ffc9a7146101a057806304917062146101d5578063371412f1146102005780633ccfd60b14610222578063479f61521461023757806348cedf85146102575761017d565b3661017d576040805133815234602082015260008051602061240d83398151915291015b60405180910390a1005b6040805133815234602082015260008051602061240d8339815191529101610173565b3480156101ac57600080fd5b506101c06101bb366004611a1a565b6104b1565b60405190151581526020015b60405180910390f35b6101e86101e3366004611b30565b6104e8565b6040516001600160a01b0390911681526020016101cc565b34801561020c57600080fd5b5061022061021b366004611be2565b6108a2565b005b34801561022e57600080fd5b506102206108cc565b34801561024357600080fd5b50610220610252366004611be2565b61096c565b34801561026357600080fd5b50610220610272366004611bff565b610996565b34801561028357600080fd5b50610220610292366004611be2565b6109e7565b6101e86102a5366004611b30565b610a11565b6101c06102b8366004611c18565b610c55565b3480156102c957600080fd5b50610220610e1c565b3480156102de57600080fd5b506101c06102ed366004611bff565b610e30565b3480156102fe57600080fd5b5061030860045481565b6040519081526020016101cc565b34801561032257600080fd5b506002546101e8906001600160a01b031681565b6101e8610344366004611b30565b610ea2565b34801561035557600080fd5b506001546101e8906001600160a01b031681565b34801561037557600080fd5b50610220610384366004611c59565b61106d565b34801561039557600080fd5b506101e86103a4366004611c9b565b611087565b3480156103b557600080fd5b506000546001600160a01b03166101e8565b3480156103d357600080fd5b506003546101e8906001600160a01b031681565b6101e86103f5366004611ce2565b611115565b34801561040657600080fd5b50610429610415366004611d97565b63bc197c8160e01b98975050505050505050565b6040516001600160e01b031990911681526020016101cc565b34801561044e57600080fd5b50610457611357565b6040516101cc9190611ea6565b34801561047057600080fd5b5061042961047f366004611eb9565b63f23a6e6160e01b9695505050505050565b34801561049d57600080fd5b506102206104ac366004611be2565b6113e5565b60006001600160e01b03198216630271189760e51b14806104e257506001600160e01b031982166301ffc9a760e01b145b92915050565b60006004543410156105155760405162461bcd60e51b815260040161050c90611f35565b60405180910390fd5b60008686604051610527929190611f5f565b604080519182900382206020830186905290820181905291506000906060016040516020818303038152906040528051906020012090506000888888886040516020016105779493929190611f6f565b60408051601f198184030181529190529050610593828b611087565b935061059f828b611420565b506105aa8787611529565b806105b957506105b985611563565b6105d55760405162461bcd60e51b815260040161050c90611f9a565b6105e1858a8a8661166b565b6105fd5760405162461bcd60e51b815260040161050c90611fe0565b7fb01595014d6b8628823d034d1da44afd71559b9f3058903a924bcdb140d976b1858a8a60405161063093929190612040565b60405180910390a1600154604051632ffef98760e21b81526001600160a01b038681166004830152600092169063bffbe61c90602401602060405180830381865afa158015610683573d6000803e3d6000fd5b505050506040513d601f19601f820116820180604052508101906106a79190612063565b90506106b281611797565b6001600160a01b0316637737221382846040518363ffffffff1660e01b81526004016106df92919061207c565b600060405180830381600087803b1580156106f957600080fd5b505af115801561070d573d6000803e3d6000fd5b50505050846001600160a01b03167fa7087df87b8f2f603995742f0cbc82961d8bee20d65d9fe7ec01fc435aab5cd68360405161074a9190611ea6565b60405180910390a261077d83603c87604051602001610769919061209d565b604051602081830303815290604052611805565b6107995760405162461bcd60e51b815260040161050c906120ba565b846001600160a01b03166000805160206123ed833981519152836040516107c09190611ea6565b60405180910390a2600254604051635b0fc9c360e01b8152600481018390523360248201526001600160a01b0390911690635b0fc9c390604401600060405180830381600087803b15801561081457600080fd5b505af1158015610828573d6000803e3d6000fd5b5050604080516001600160a01b03891681523360208201527f2260a4d0c00902d7996e8f7d669d22564414d41be4d278a40387ddf58179d392935001905060405180910390a16040805133815234602082015260008051602061240d833981519152910160405180910390a1505050509695505050505050565b6108aa611881565b600380546001600160a01b0319166001600160a01b0392909216919091179055565b6108d4611881565b600080546040516001600160a01b039091169047908381818185875af1925050503d8060008114610921576040519150601f19603f3d011682016040523d82523d6000602084013e610926565b606091505b50509050806109695760405162461bcd60e51b815260206004820152600f60248201526e15da5d1a191c985dc819985a5b1959608a1b604482015260640161050c565b50565b610974611881565b600280546001600160a01b0319166001600160a01b0392909216919091179055565b61099e611881565b600081116109e25760405162461bcd60e51b815260206004820152601160248201527005072696365206d757374206265203e203607c1b604482015260640161050c565b600455565b6109ef611881565b600180546001600160a01b0319166001600160a01b0392909216919091179055565b6000600454341015610a355760405162461bcd60e51b815260040161050c90611f35565b60008686604051610a47929190611f5f565b60408051918290038220602083018690529082018190529150600090606001604051602081830303815290604052805190602001209050600088888888604051602001610a979493929190611f6f565b60408051601f198184030181529190529050610ab3828b611087565b9350610abf828b611420565b50610ace848a8a8a8a8a610c55565b610b365760405162461bcd60e51b815260206004820152603360248201527f4661696c656420746f20637265617465207375626e616d6520616e6420736574604482015272103337b93bb0b932103932b9b7b63aba34b7b760691b606482015260840161050c565b610b498482610b4485611797565b6118ae565b610b955760405162461bcd60e51b815260206004820152601a60248201527f4661696c656420746f20736574207072696d617279206e616d65000000000000604482015260640161050c565b836001600160a01b03167fa7087df87b8f2f603995742f0cbc82961d8bee20d65d9fe7ec01fc435aab5cd682604051610bce9190611ea6565b60405180910390a2610be084336118e5565b604080516001600160a01b03861681523360208201527f2260a4d0c00902d7996e8f7d669d22564414d41be4d278a40387ddf58179d392910160405180910390a16040805133815234602082015260008051602061240d83398151915291015b60405180910390a15050509695505050505050565b6000600454341015610c795760405162461bcd60e51b815260040161050c90611f35565b60008686604051610c8b929190611f5f565b60408051918290038220602083018690529082018190529150600090606001604051602081830303815290604052805190602001209050600088888888604051602001610cdb9493929190611f6f565b6040516020818303038152906040529050610cf68787611529565b80610d055750610d0585611563565b610d215760405162461bcd60e51b815260040161050c90611f9a565b610d2d858a8a8661166b565b610d495760405162461bcd60e51b815260040161050c90611fe0565b7fb01595014d6b8628823d034d1da44afd71559b9f3058903a924bcdb140d976b1858a8a604051610d7c93929190612040565b60405180910390a1610d9b82603c8c604051602001610769919061209d565b610db75760405162461bcd60e51b815260040161050c906120ba565b896001600160a01b03166000805160206123ed83398151915282604051610dde9190611ea6565b60405180910390a26040805133815234602082015260008051602061240d833981519152910160405180910390a15060019998505050505050505050565b610e24611881565b610e2e60006119ca565b565b60035460405163fd0cd0d960e01b8152600481018390526000916001600160a01b03169063fd0cd0d990602401602060405180830381865afa925050508015610e96575060408051601f3d908101601f19168201909252610e93918101906120fc565b60015b6104e257506000919050565b6000600454341015610ec65760405162461bcd60e51b815260040161050c90611f35565b60008686604051610ed8929190611f5f565b60408051918290038220602083018690529082018190529150600090606001604051602081830303815290604052805190602001209050600088888888604051602001610f289493929190611f6f565b6040516020818303038152906040529050610f438787611529565b80610f525750610f5285611563565b610f6e5760405162461bcd60e51b815260040161050c90611f9a565b610f7a858a8a8661166b565b610f965760405162461bcd60e51b815260040161050c90611fe0565b7fb01595014d6b8628823d034d1da44afd71559b9f3058903a924bcdb140d976b1858a8a604051610fc993929190612040565b60405180910390a1610fdb828b611087565b9350610fe7828b611420565b50610fff82603c86604051602001610769919061209d565b61101b5760405162461bcd60e51b815260040161050c906120ba565b836001600160a01b03166000805160206123ed833981519152826040516110429190611ea6565b60405180910390a26040805133815234602082015260008051602061240d8339815191529101610c40565b611075611881565b60056110828284836121a8565b505050565b600080828051906020012090506000846040516020016110a991815260200190565b60408051601f1981840301815282825280516020918201206001600160f81b0319828501523060601b6bffffffffffffffffffffffff19166021850152603584015260558084019590955281518084039095018552607590920190528251920191909120949350505050565b60006004543410156111395760405162461bcd60e51b815260040161050c90611f35565b6111438286611087565b905061114f8286611420565b5061115982611563565b6111a55760405162461bcd60e51b815260206004820152601f60248201527f53656e646572206973206e6f7420746865206f776e6572206f66206e6f646500604482015260640161050c565b6111bc82603c83604051602001610769919061209d565b6111d85760405162461bcd60e51b815260040161050c906120ba565b806001600160a01b03166000805160206123ed8339815191528585604051611201929190612269565b60405180910390a261124f8185858080601f016020809104026020016040519081016040528093929190818152602001838380828437600092019190915250610b4492508791506117979050565b61129b5760405162461bcd60e51b815260206004820152601a60248201527f4661696c656420746f20736574207072696d617279206e616d65000000000000604482015260640161050c565b806001600160a01b03167fa7087df87b8f2f603995742f0cbc82961d8bee20d65d9fe7ec01fc435aab5cd685856040516112d6929190612269565b60405180910390a26112e881336118e5565b604080516001600160a01b03831681523360208201527f2260a4d0c00902d7996e8f7d669d22564414d41be4d278a40387ddf58179d392910160405180910390a16040805133815234602082015260008051602061240d833981519152910160405180910390a1949350505050565b600580546113649061211e565b80601f01602080910402602001604051908101604052809291908181526020018280546113909061211e565b80156113dd5780601f106113b2576101008083540402835291602001916113dd565b820191906000526020600020905b8154815290600101906020018083116113c057829003601f168201915b505050505081565b6113ed611881565b6001600160a01b03811661141757604051631e4fbdf760e01b81526000600482015260240161050c565b610969816119ca565b6000808251116114635760405162461bcd60e51b815260206004820152600e60248201526d456d7074792062797465636f646560901b604482015260640161050c565b60008360405160200161147891815260200190565b604051602081830303815290604052805190602001209050808351602085016000f591506001600160a01b0382166114e65760405162461bcd60e51b815260206004820152601160248201527011195c1b1bde5b595b9d0819985a5b1959607a1b604482015260640161050c565b6040516001600160a01b03831681527f8ffcdc15a283d706d38281f500270d8b5a656918f555de0913d7455e3e6bc1bf9060200160405180910390a15092915050565b6000600560405161153a919061227d565b60405180910390208383604051611552929190611f5f565b604051809103902014905092915050565b600061156e82610e30565b6115ee576002546040516302571be360e01b81526004810184905233916001600160a01b0316906302571be390602401602060405180830381865afa1580156115bb573d6000803e3d6000fd5b505050506040513d601f19601f820116820180604052508101906115df91906122f3565b6001600160a01b0316146104e2565b6003546040516331a9108f60e11b81526004810184905233916001600160a01b031690636352211e90602401602060405180830381865afa158015611637573d6000803e3d6000fd5b505050506040513d601f19601f8201168201806040525081019061165b91906122f3565b6001600160a01b03161492915050565b600061167685610e30565b156116f8576003546001600160a01b03166324c1af448686863061169984611797565b60008060006040518963ffffffff1660e01b81526004016116c1989796959493929190612310565b600060405180830381600087803b1580156116db57600080fd5b505af11580156116ef573d6000803e3d6000fd5b5050505061178c565b6002546001600160a01b0316635ef2c7f086843061171583611797565b6040516001600160e01b031960e087901b168152600481019490945260248401929092526001600160a01b0390811660448401521660648201526000608482015260a401600060405180830381600087803b15801561177357600080fd5b505af1158015611787573d6000803e3d6000fd5b505050505b506001949350505050565b600254604051630178b8bf60e01b8152600481018390526000916001600160a01b031690630178b8bf90602401602060405180830381865afa1580156117e1573d6000803e3d6000fd5b505050506040513d601f19601f820116820180604052508101906104e291906122f3565b600061181084611797565b6001600160a01b0316638b95dd718585856040518463ffffffff1660e01b815260040161183f93929190612373565b600060405180830381600087803b15801561185957600080fd5b505af192505050801561186a575060015b6118765750600061187a565b5060015b9392505050565b6000546001600160a01b03163314610e2e5760405163118cdaa760e01b815233600482015260240161050c565b600154604051637a806d6b60e01b81526000916001600160a01b031690637a806d6b9061183f908790309087908990600401612392565b6040516001600160a01b0382811660248301526000919084169060440160408051601f198184030181529181526020820180516001600160e01b031663f2fde38b60e01b1790525161193791906123d0565b6000604051808303816000865af19150503d8060008114611974576040519150601f19603f3d011682016040523d82523d6000602084013e611979565b606091505b50509050806110825760405162461bcd60e51b815260206004820152601960248201527f4f776e657273686970207472616e73666572206661696c656400000000000000604482015260640161050c565b600080546001600160a01b038381166001600160a01b0319831681178455604051919092169283917f8be0079c531659141344cd1fd0a4f28419497f9722a3daafe3b4186f6b6457e09190a35050565b600060208284031215611a2c57600080fd5b81356001600160e01b03198116811461187a57600080fd5b634e487b7160e01b600052604160045260246000fd5b600082601f830112611a6b57600080fd5b813567ffffffffffffffff80821115611a8657611a86611a44565b604051601f8301601f19908116603f01168101908282118183101715611aae57611aae611a44565b81604052838152866020858801011115611ac757600080fd5b836020870160208301376000602085830101528094505050505092915050565b60008083601f840112611af957600080fd5b50813567ffffffffffffffff811115611b1157600080fd5b602083019150836020828501011115611b2957600080fd5b9250929050565b60008060008060008060808789031215611b4957600080fd5b863567ffffffffffffffff80821115611b6157600080fd5b611b6d8a838b01611a5a565b97506020890135915080821115611b8357600080fd5b611b8f8a838b01611ae7565b90975095506040890135915080821115611ba857600080fd5b50611bb589828a01611ae7565b979a9699509497949695606090950135949350505050565b6001600160a01b038116811461096957600080fd5b600060208284031215611bf457600080fd5b813561187a81611bcd565b600060208284031215611c1157600080fd5b5035919050565b60008060008060008060808789031215611c3157600080fd5b8635611c3c81611bcd565b9550602087013567ffffffffffffffff80821115611b8357600080fd5b60008060208385031215611c6c57600080fd5b823567ffffffffffffffff811115611c8357600080fd5b611c8f85828601611ae7565b90969095509350505050565b60008060408385031215611cae57600080fd5b82359150602083013567ffffffffffffffff811115611ccc57600080fd5b611cd885828601611a5a565b9150509250929050565b60008060008060608587031215611cf857600080fd5b843567ffffffffffffffff80821115611d1057600080fd5b611d1c88838901611a5a565b95506020870135915080821115611d3257600080fd5b50611d3f87828801611ae7565b9598909750949560400135949350505050565b60008083601f840112611d6457600080fd5b50813567ffffffffffffffff811115611d7c57600080fd5b6020830191508360208260051b8501011115611b2957600080fd5b60008060008060008060008060a0898b031215611db357600080fd5b8835611dbe81611bcd565b97506020890135611dce81611bcd565b9650604089013567ffffffffffffffff80821115611deb57600080fd5b611df78c838d01611d52565b909850965060608b0135915080821115611e1057600080fd5b611e1c8c838d01611d52565b909650945060808b0135915080821115611e3557600080fd5b50611e428b828c01611ae7565b999c989b5096995094979396929594505050565b60005b83811015611e71578181015183820152602001611e59565b50506000910152565b60008151808452611e92816020860160208601611e56565b601f01601f19169290920160200192915050565b60208152600061187a6020830184611e7a565b60008060008060008060a08789031215611ed257600080fd5b8635611edd81611bcd565b95506020870135611eed81611bcd565b94506040870135935060608701359250608087013567ffffffffffffffff811115611f1757600080fd5b611f2389828a01611ae7565b979a9699509497509295939492505050565b60208082526010908201526f092dce6eaccccd2c6d2cadce8408aa8960831b604082015260600190565b8183823760009101908152919050565b838582376000848201601760f91b815283856001830137600093016001019283525090949350505050565b60208082526026908201527f53656e646572206973206e6f7420746865206f776e6572206f6620706172656e60408201526574206e6f646560d01b606082015260800190565b60208082526017908201527f5375626e616d65206372656174696f6e206661696c6564000000000000000000604082015260600190565b81835281816020850137506000828201602090810191909152601f909101601f19169091010190565b83815260406020820152600061205a604083018486612017565b95945050505050565b60006020828403121561207557600080fd5b5051919050565b8281526040602082015260006120956040830184611e7a565b949350505050565b60609190911b6bffffffffffffffffffffffff1916815260140190565b60208082526022908201527f736574416464722c20666f7277617264207265736f6c7574696f6e206661696c604082015261195960f21b606082015260800190565b60006020828403121561210e57600080fd5b8151801515811461187a57600080fd5b600181811c9082168061213257607f821691505b60208210810361215257634e487b7160e01b600052602260045260246000fd5b50919050565b601f821115611082576000816000526020600020601f850160051c810160208610156121815750805b601f850160051c820191505b818110156121a05782815560010161218d565b505050505050565b67ffffffffffffffff8311156121c0576121c0611a44565b6121d4836121ce835461211e565b83612158565b6000601f84116001811461220857600085156121f05750838201355b600019600387901b1c1916600186901b178355612262565b600083815260209020601f19861690835b828110156122395786850135825560209485019460019092019101612219565b50868210156122565760001960f88860031b161c19848701351681555b505060018560011b0183555b5050505050565b602081526000612095602083018486612017565b600080835461228b8161211e565b600182811680156122a357600181146122b8576122e7565b60ff19841687528215158302870194506122e7565b8760005260208060002060005b858110156122de5781548a8201529084019082016122c5565b50505082870194505b50929695505050505050565b60006020828403121561230557600080fd5b815161187a81611bcd565b88815260e06020820152600061232a60e08301898b612017565b6001600160a01b03978816604084015295909616606082015267ffffffffffffffff938416608082015263ffffffff9290921660a083015290911660c090910152949350505050565b83815282602082015260606040820152600061205a6060830184611e7a565b6001600160a01b0385811682528481166020830152831660408201526080606082018190526000906123c690830184611e7a565b9695505050505050565b600082516123e2818460208701611e56565b919091019291505056febce672f287ca218b7a90c84485d9b40640252149f0e8c2932fe972e3fbc6fdc31e57e3bb474320be3d2c77138f75b7c3941292d647f5f9634e33a8e94e0e069ba2646970667358221220f878d557da201f59a129f747421c80e03c483121b168ac9d6b392f00e6f72f8164736f6c63430008180033",
  "linkReferences": {},
  "deployedLinkReferences": {}
}