{
  "address": "0x00000000000C2E074eC69A0dFb2997BA6C7d2e1e",
  "abi": [
    {
      "inputs": [
        {
          "internalType": "contract ENS",
          "name": "_old",
          "type": "address"
        }
      ],
      "stateMutability": "nonpayable",
      "type": "constructor"
    },
    {
      "anonymous": false,
      "inputs": [
        {
          "indexed": true,
          "internalType": "address",
          "name": "owner",
          "type": "address"
        },
        {
          "indexed": true,
          "internalType": "address",
          "name": "operator",
          "type": "address"
        },
        {
          "indexed": false,
          "internalType": "bool",
          "name": "approved",
          "type": "bool"
        }
      ],
      "name": "ApprovalForAll",
      "type": "event"
    },
    {
      "anonymous": false,
      "inputs": [
        {
          "indexed": true,
          "internalType": "bytes32",
          "name": "node",
          "type": "bytes32"
        },
        {
          "indexed": true,
          "internalType": "bytes32",
          "name": "label",
          "type": "bytes32"
        },
        {
          "indexed": false,
          "internalType": "address",
          "name": "owner",
          "type": "address"
        }
      ],
      "name": "NewOwner",
      "type": "event"
    },
    {
      "anonymous": false,
      "inputs": [
        {
          "indexed": true,
          "internalType": "bytes32",
          "name": "node",
          "type": "bytes32"
        },
        {
          "indexed": false,
          "internalType": "address",
          "name": "resolver",
          "type": "address"
        }
      ],
      "name": "NewResolver",
      "type": "event"
    },
    {
      "anonymous": false,
      "inputs": [
        {
          "indexed": true,
          "internalType": "bytes32",
          "name": "node",
          "type": "bytes32"
        },
        {
          "indexed": false,
          "internalType": "uint64",
          "name": "ttl",
          "type": "uint64"
        }
      ],
      "name": "NewTTL",
      "type": "event"
    },
    {
      "anonymous": false,
      "inputs": [
        {
          "indexed": true,
          "internalType": "bytes32",
          "name": "node",
          "type": "bytes32"
        },
        {
          "indexed": false,
          "internalType": "address",
          "name": "owner",
          "type": "address"
        }
      ],
      "name": "Transfer",
      "type": "event"
    },
    {
      "inputs": [
        {
          "internalType": "address",
          "name": "owner",
          "type": "address"
        },
        {
          "internalType": "address",
          "name": "operator",
          "type": "address"
        }
      ],
      "name": "isApprovedForAll",
      "outputs": [
        {
          "internalType": "bool",
          "name": "",
          "type": "bool"
        }
      ],
      "stateMutability": "view",
      "type": "function"
    },
    {
      "inputs": [],
      "name": "old",
      "outputs": [
        {
          "internalType": "contract ENS",
          "name": "",
          "type": "address"
        }
      ],
      "stateMutability": "view",
      "type": "function"
    },
    {
      "inputs": [
        {
          "internalType": "bytes32",
          "name": "node",
          "type": "bytes32"
        }
      ],
      "name": "owner",
      "outputs": [
        {
          "internalType": "address",
          "name": "",
          "type": "address"
        }
      ],
      "stateMutability": "view",
      "type": "function"
    },
    {
      "inputs": [
        {
          "internalType": "bytes32",
          "name": "node",
          "type": "bytes32"
        }
      ],
      "name": "recordExists",
      "outputs": [
        {
          "internalType": "bool",
          "name": "",
          "type": "bool"
        }
      ],
      "stateMutability": "view",
      "type": "function"
    },
    {
      "inputs": [
        {
          "internalType": "bytes32",
          "name": "node",
          "type": "bytes32"
        }
      ],
      "name": "resolver",
      "outputs": [
        {
          "internalType": "address",
          "name": "",
          "type": "address"
        }
      ],
      "stateMutability": "view",
      "type": "function"
    },
    {
      "inputs": [
        {
          "internalType": "address",
          "name": "operator",
          "type": "address"
        },
        {
          "internalType": "bool",
          "name": "approved",
          "type": "bool"
        }
      ],
      "name": "setApprovalForAll",
      "outputs": [],
      "stateMutability": "nonpayable",
      "type": "function"
    },
    {
      "inputs": [
        {
          "internalType": "bytes32",
          "name": "node",
          "type": "bytes32"
        },
        {
          "internalType": "address",
          "name": "owner",
          "type": "address"
        }
      ],
      "name": "setOwner",
      "outputs": [],
      "stateMutability": "nonpayable",
      "type": "function"
    },
    {
      "inputs": [
        {
          "internalType": "bytes32",
          "name": "node",
          "type": "bytes32"
        },
        {
          "internalType": "address",
          "name": "owner",
          "type": "address"
        },
        {
          "internalType": "address",
          "name": "resolver",
          "type": "address"
        },
        {
          "internalType": "uint64",
          "name": "ttl",
          "type": "uint64"
        }
      ],
      "name": "setRecord",
      "outputs": [],
      "stateMutability": "nonpayable",
      "type": "function"
    },
    {
      "inputs": [
        {
          "internalType": "bytes32",
          "name": "node",
          "type": "bytes32"
        },
        {
          "internalType": "address",
          "name": "resolver",
          "type": "address"
        }
      ],
      "name": "setResolver",
      "outputs": [],
      "stateMutability": "nonpayable",
      "type": "function"
    },
    {
      "inputs": [
        {
          "internalType": "bytes32",
          "name": "node",
          "type": "bytes32"
        },
        {
          "internalType": "bytes32",
          "name": "label",
          "type": "bytes32"
        },
        {
          "internalType": "address",
          "name": "owner",
          "type": "address"
        }
      ],
      "name": "setSubnodeOwner",
      "outputs": [
        {
          "internalType": "bytes32",
          "name": "",
          "type": "bytes32"
        }
      ],
      "stateMutability": "nonpayable",
      "type": "function"
    },
    {
      "inputs": [
        {
          "internalType": "bytes32",
          "name": "node",
          "type": "bytes32"
        },
        {
          "internalType": "bytes32",
          "name": "label",
          "type": "bytes32"
        },
        {
          "internalType": "address",
          "name": "owner",
          "type": "address"
        },
        {
          "internalType": "address",
          "name": "resolver",
          "type": "address"
        },
        {
          "internalType": "uint64",
          "name": "ttl",
          "type": "uint64"
        }
      ],
      "name": "setSubnodeRecord",
      "outputs": [],
      "stateMutability": "nonpayable",
      "type": "function"
    },
    {
      "inputs": [
        {
          "internalType": "bytes32",
          "name": "node",
          "type": "bytes32"
        },
        {
          "internalType": "uint64",
          "name": "ttl",
          "type": "uint64"
        }
      ],
      "name": "setTTL",
      "outputs": [],
      "stateMutability": "nonpayable",
      "type": "function"
    },
    {
      "inputs": [
        {
          "internalType": "bytes32",
          "name": "node",
          "type": "bytes32"
        }
      ],
      "name": "ttl",
      "outputs": [
        {
          "internalType": "uint64",
          "name": "",
          "type": "uint64"
        }
      ],
      "stateMutability": "view",
      "type": "function"
    }
  ],
  "transactionHash": "0x3a2e7874ae2b5a081b44ea944f46fed95dfdf1dec6939f4b71081c9e9ffa43a5",
  "args": [
    "0x94f523b8261B815b87EFfCf4d18E6aBeF18d6e4b"
  ],
  "numDeployments": 1,
  "bytecode": "0x608060405234801561001057600080fd5b50604051610d2e380380610d2e83398101604081905261002f91610089565b60008080526020527fad3228b676f7d3cd4284a5443f17f1962b36e491b30a40b2405849e597ba5fb58054336001600160a01b031991821617909155600280549091166001600160a01b03929092169190911790556100b9565b60006020828403121561009b57600080fd5b81516001600160a01b03811681146100b257600080fd5b9392505050565b610c66806100c86000396000f3fe608060405234801561001057600080fd5b50600436106100df5760003560e01c80635b0fc9c31161008c578063b83f866311610066578063b83f8663146101d5578063cf408823146101e8578063e985e9c5146101fb578063f79fe5381461024757600080fd5b80635b0fc9c31461019c5780635ef2c7f0146101af578063a22cb465146101c257600080fd5b806314ab9038116100bd57806314ab90381461014857806316a25cbd1461015d5780631896f70a1461018957600080fd5b80630178b8bf146100e457806302571be31461011457806306ab592314610127575b600080fd5b6100f76100f2366004610a07565b610272565b6040516001600160a01b0390911681526020015b60405180910390f35b6100f7610122366004610a07565b61033b565b61013a610135366004610a38565b6103aa565b60405190815260200161010b565b61015b610156366004610a87565b61047a565b005b61017061016b366004610a07565b610561565b60405167ffffffffffffffff909116815260200161010b565b61015b610197366004610ab7565b61062b565b61015b6101aa366004610ab7565b6106fd565b61015b6101bd366004610adc565b61079f565b61015b6101d0366004610b3b565b6107c1565b6002546100f7906001600160a01b031681565b61015b6101f6366004610b6e565b61082d565b610237610209366004610bc1565b6001600160a01b03918216600090815260016020908152604080832093909416825291909152205460ff1690565b604051901515815260200161010b565b610237610255366004610a07565b6000908152602081905260409020546001600160a01b0316151590565b6000818152602081905260408120546001600160a01b031661031b576002546040517f0178b8bf000000000000000000000000000000000000000000000000000000008152600481018490526001600160a01b0390911690630178b8bf906024015b602060405180830381865afa1580156102f1573d6000803e3d6000fd5b505050506040513d601f19601f820116820180604052508101906103159190610bef565b92915050565b6000828152602081905260409020600101546001600160a01b0316610315565b6000818152602081905260408120546001600160a01b03166103a1576002546040517f02571be3000000000000000000000000000000000000000000000000000000008152600481018490526001600160a01b03909116906302571be3906024016102d4565b61031582610848565b60008381526020819052604081205484906001600160a01b0316338114806103f557506001600160a01b038116600090815260016020908152604080832033845290915290205460ff165b6103fe57600080fd5b604080516020808201899052818301889052825180830384018152606090920190925280519101206104308186610870565b6040516001600160a01b0386168152869088907fce0457fe73731f824cc272376169235128c118b49d344817417c6d108d155e829060200160405180910390a39695505050505050565b60008281526020819052604090205482906001600160a01b0316338114806104c557506001600160a01b038116600090815260016020908152604080832033845290915290205460ff165b6104ce57600080fd5b60405167ffffffffffffffff8416815284907f1d4f9bbfc9cab89d66e1a1562f2233ccbf1308cb4f63de2ead5787adddb8fa689060200160405180910390a25050600091825260208290526040909120600101805467ffffffffffffffff909216600160a01b027fffffffff0000000000000000ffffffffffffffffffffffffffffffffffffffff909216919091179055565b6000818152602081905260408120546001600160a01b0316610603576002546040517f16a25cbd000000000000000000000000000000000000000000000000000000008152600481018490526001600160a01b03909116906316a25cbd90602401602060405180830381865afa1580156105df573d6000803e3d6000fd5b505050506040513d601f19601f820116820180604052508101906103159190610c13565b600082815260208190526040902060010154600160a01b900467ffffffffffffffff16610315565b60008281526020819052604090205482906001600160a01b03163381148061067657506001600160a01b038116600090815260016020908152604080832033845290915290205460ff165b61067f57600080fd5b6040516001600160a01b038416815284907f335721b01866dc23fbee8b6b2c7b1e14d6f05c28cd35a2c934239f94095602a09060200160405180910390a25050600091825260208290526040909120600101805473ffffffffffffffffffffffffffffffffffffffff19166001600160a01b03909216919091179055565b60008281526020819052604090205482906001600160a01b03163381148061074857506001600160a01b038116600090815260016020908152604080832033845290915290205460ff165b61075157600080fd5b61075b8484610870565b6040516001600160a01b038416815284907fd4735d920b0f87494915f556dd9b54c8f309026070caea5c737245152564d2669060200160405180910390a250505050565b60006107ac8686866103aa565b90506107b98184846108c0565b505050505050565b3360008181526001602090815260408083206001600160a01b03871680855290835292819020805460ff191686151590811790915590519081529192917f17307eab39ab6107e8899845ad3d59bd9653f200f220920489ca2b5937696c31910160405180910390a35050565b61083784846106fd565b6108428483836108c0565b50505050565b6000818152602081905260408120546001600160a01b03163081036103155750600092915050565b806001600160a01b0381166108825750305b6000838152602081905260409020805473ffffffffffffffffffffffffffffffffffffffff19166001600160a01b038316179055505050565b505050565b6000838152602081905260409020600101546001600160a01b038381169116146109535760008381526020818152604091829020600101805473ffffffffffffffffffffffffffffffffffffffff19166001600160a01b038616908117909155915191825284917f335721b01866dc23fbee8b6b2c7b1e14d6f05c28cd35a2c934239f94095602a0910160405180910390a25b60008381526020819052604090206001015467ffffffffffffffff828116600160a01b90920416146108bb576000838152602081815260409182902060010180547fffffffff0000000000000000ffffffffffffffffffffffffffffffffffffffff16600160a01b67ffffffffffffffff861690810291909117909155915191825284917f1d4f9bbfc9cab89d66e1a1562f2233ccbf1308cb4f63de2ead5787adddb8fa68910160405180910390a2505050565b600060208284031215610a1957600080fd5b5035919050565b6001600160a01b0381168114610a3557600080fd5b50565b600080600060608486031215610a4d57600080fd5b83359250602084013591506040840135610a6681610a20565b809150509250925092565b67ffffffffffffffff81168114610a3557600080fd5b60008060408385031215610a9a57600080fd5b823591506020830135610aac81610a71565b809150509250929050565b60008060408385031215610aca57600080fd5b823591506020830135610aac81610a20565b600080600080600060a08688031215610af457600080fd5b85359450602086013593506040860135610b0d81610a20565b92506060860135610b1d81610a20565b91506080860135610b2d81610a71565b809150509295509295909350565b60008060408385031215610b4e57600080fd5b8235610b5981610a20565b915060208301358015158114610aac57600080fd5b60008060008060808587031215610b8457600080fd5b843593506020850135610b9681610a20565b92506040850135610ba681610a20565b91506060850135610bb681610a71565b939692955090935050565b60008060408385031215610bd457600080fd5b8235610bdf81610a20565b91506020830135610aac81610a20565b600060208284031215610c0157600080fd5b8151610c0c81610a20565b9392505050565b600060208284031215610c2557600080fd5b8151610c0c81610a7156fea26469706673582212200ca228106ebfbcf2a8f9809dd6a6e8feb568201ac730c6e7305d2a35fd19942e64736f6c63430008110033"
}