{
  "address": "0x7e02892cfc2Bfd53a75275451d73cF620e793fc0",
  "abi": [
    {
      "inputs": [
        {
          "internalType": "contract BaseRegistrar",
          "name": "_base",
          "type": "address"
        },
        {
          "internalType": "contract PriceOracle",
          "name": "_prices",
          "type": "address"
        },
        {
          "internalType": "uint256",
          "name": "_minCommitmentAge",
          "type": "uint256"
        },
        {
          "internalType": "uint256",
          "name": "_maxCommitmentAge",
          "type": "uint256"
        }
      ],
      "payable": false,
      "stateMutability": "nonpayable",
      "type": "constructor"
    },
    {
      "anonymous": false,
      "inputs": [
        {
          "indexed": false,
          "internalType": "string",
          "name": "name",
          "type": "string"
        },
        {
          "indexed": true,
          "internalType": "bytes32",
          "name": "label",
          "type": "bytes32"
        },
        {
          "indexed": true,
          "internalType": "address",
          "name": "owner",
          "type": "address"
        },
        {
          "indexed": false,
          "internalType": "uint256",
          "name": "cost",
          "type": "uint256"
        },
        {
          "indexed": false,
          "internalType": "uint256",
          "name": "expires",
          "type": "uint256"
        }
      ],
      "name": "NameRegistered",
      "type": "event"
    },
    {
      "anonymous": false,
      "inputs": [
        {
          "indexed": false,
          "internalType": "string",
          "name": "name",
          "type": "string"
        },
        {
          "indexed": true,
          "internalType": "bytes32",
          "name": "label",
          "type": "bytes32"
        },
        {
          "indexed": false,
          "internalType": "uint256",
          "name": "cost",
          "type": "uint256"
        },
        {
          "indexed": false,
          "internalType": "uint256",
          "name": "expires",
          "type": "uint256"
        }
      ],
      "name": "NameRenewed",
      "type": "event"
    },
    {
      "anonymous": false,
      "inputs": [
        {
          "indexed": true,
          "internalType": "address",
          "name": "oracle",
          "type": "address"
        }
      ],
      "name": "NewPriceOracle",
      "type": "event"
    },
    {
      "anonymous": false,
      "inputs": [
        {
          "indexed": true,
          "internalType": "address",
          "name": "previousOwner",
          "type": "address"
        },
        {
          "indexed": true,
          "internalType": "address",
          "name": "newOwner",
          "type": "address"
        }
      ],
      "name": "OwnershipTransferred",
      "type": "event"
    },
    {
      "constant": true,
      "inputs": [],
      "name": "MIN_REGISTRATION_DURATION",
      "outputs": [
        {
          "internalType": "uint256",
          "name": "",
          "type": "uint256"
        }
      ],
      "payable": false,
      "stateMutability": "view",
      "type": "function"
    },
    {
      "constant": true,
      "inputs": [
        {
          "internalType": "string",
          "name": "name",
          "type": "string"
        }
      ],
      "name": "available",
      "outputs": [
        {
          "internalType": "bool",
          "name": "",
          "type": "bool"
        }
      ],
      "payable": false,
      "stateMutability": "view",
      "type": "function"
    },
    {
      "constant": false,
      "inputs": [
        {
          "internalType": "bytes32",
          "name": "commitment",
          "type": "bytes32"
        }
      ],
      "name": "commit",
      "outputs": [],
      "payable": false,
      "stateMutability": "nonpayable",
      "type": "function"
    },
    {
      "constant": true,
      "inputs": [
        {
          "internalType": "bytes32",
          "name": "",
          "type": "bytes32"
        }
      ],
      "name": "commitments",
      "outputs": [
        {
          "internalType": "uint256",
          "name": "",
          "type": "uint256"
        }
      ],
      "payable": false,
      "stateMutability": "view",
      "type": "function"
    },
    {
      "constant": true,
      "inputs": [],
      "name": "isOwner",
      "outputs": [
        {
          "internalType": "bool",
          "name": "",
          "type": "bool"
        }
      ],
      "payable": false,
      "stateMutability": "view",
      "type": "function"
    },
    {
      "constant": true,
      "inputs": [
        {
          "internalType": "string",
          "name": "name",
          "type": "string"
        },
        {
          "internalType": "address",
          "name": "owner",
          "type": "address"
        },
        {
          "internalType": "bytes32",
          "name": "secret",
          "type": "bytes32"
        }
      ],
      "name": "makeCommitment",
      "outputs": [
        {
          "internalType": "bytes32",
          "name": "",
          "type": "bytes32"
        }
      ],
      "payable": false,
      "stateMutability": "pure",
      "type": "function"
    },
    {
      "constant": true,
      "inputs": [
        {
          "internalType": "string",
          "name": "name",
          "type": "string"
        },
        {
          "internalType": "address",
          "name": "owner",
          "type": "address"
        },
        {
          "internalType": "bytes32",
          "name": "secret",
          "type": "bytes32"
        },
        {
          "internalType": "address",
          "name": "resolver",
          "type": "address"
        },
        {
          "internalType": "address",
          "name": "addr",
          "type": "address"
        }
      ],
      "name": "makeCommitmentWithConfig",
      "outputs": [
        {
          "internalType": "bytes32",
          "name": "",
          "type": "bytes32"
        }
      ],
      "payable": false,
      "stateMutability": "pure",
      "type": "function"
    },
    {
      "constant": true,
      "inputs": [],
      "name": "maxCommitmentAge",
      "outputs": [
        {
          "internalType": "uint256",
          "name": "",
          "type": "uint256"
        }
      ],
      "payable": false,
      "stateMutability": "view",
      "type": "function"
    },
    {
      "constant": true,
      "inputs": [],
      "name": "minCommitmentAge",
      "outputs": [
        {
          "internalType": "uint256",
          "name": "",
          "type": "uint256"
        }
      ],
      "payable": false,
      "stateMutability": "view",
      "type": "function"
    },
    {
      "constant": true,
      "inputs": [],
      "name": "owner",
      "outputs": [
        {
          "internalType": "address",
          "name": "",
          "type": "address"
        }
      ],
      "payable": false,
      "stateMutability": "view",
      "type": "function"
    },
    {
      "constant": false,
      "inputs": [
        {
          "internalType": "string",
          "name": "name",
          "type": "string"
        },
        {
          "internalType": "address",
          "name": "owner",
          "type": "address"
        },
        {
          "internalType": "uint256",
          "name": "duration",
          "type": "uint256"
        },
        {
          "internalType": "bytes32",
          "name": "secret",
          "type": "bytes32"
        }
      ],
      "name": "register",
      "outputs": [],
      "payable": true,
      "stateMutability": "payable",
      "type": "function"
    },
    {
      "constant": false,
      "inputs": [
        {
          "internalType": "string",
          "name": "name",
          "type": "string"
        },
        {
          "internalType": "address",
          "name": "owner",
          "type": "address"
        },
        {
          "internalType": "uint256",
          "name": "duration",
          "type": "uint256"
        },
        {
          "internalType": "bytes32",
          "name": "secret",
          "type": "bytes32"
        },
        {
          "internalType": "address",
          "name": "resolver",
          "type": "address"
        },
        {
          "internalType": "address",
          "name": "addr",
          "type": "address"
        }
      ],
      "name": "registerWithConfig",
      "outputs": [],
      "payable": true,
      "stateMutability": "payable",
      "type": "function"
    },
    {
      "constant": false,
      "inputs": [
        {
          "internalType": "string",
          "name": "name",
          "type": "string"
        },
        {
          "internalType": "uint256",
          "name": "duration",
          "type": "uint256"
        }
      ],
      "name": "renew",
      "outputs": [],
      "payable": true,
      "stateMutability": "payable",
      "type": "function"
    },
    {
      "constant": false,
      "inputs": [],
      "name": "renounceOwnership",
      "outputs": [],
      "payable": false,
      "stateMutability": "nonpayable",
      "type": "function"
    },
    {
      "constant": true,
      "inputs": [
        {
          "internalType": "string",
          "name": "name",
          "type": "string"
        },
        {
          "internalType": "uint256",
          "name": "duration",
          "type": "uint256"
        }
      ],
      "name": "rentPrice",
      "outputs": [
        {
          "internalType": "uint256",
          "name": "",
          "type": "uint256"
        }
      ],
      "payable": false,
      "stateMutability": "view",
      "type": "function"
    },
    {
      "constant": false,
      "inputs": [
        {
          "internalType": "uint256",
          "name": "_minCommitmentAge",
          "type": "uint256"
        },
        {
          "internalType": "uint256",
          "name": "_maxCommitmentAge",
          "type": "uint256"
        }
      ],
      "name": "setCommitmentAges",
      "outputs": [],
      "payable": false,
      "stateMutability": "nonpayable",
      "type": "function"
    },
    {
      "constant": false,
      "inputs": [
        {
          "internalType": "contract PriceOracle",
          "name": "_prices",
          "type": "address"
        }
      ],
      "name": "setPriceOracle",
      "outputs": [],
      "payable": false,
      "stateMutability": "nonpayable",
      "type": "function"
    },
    {
      "constant": true,
      "inputs": [
        {
          "internalType": "bytes4",
          "name": "interfaceID",
          "type": "bytes4"
        }
      ],
      "name": "supportsInterface",
      "outputs": [
        {
          "internalType": "bool",
          "name": "",
          "type": "bool"
        }
      ],
      "payable": false,
      "stateMutability": "pure",
      "type": "function"
    },
    {
      "constant": false,
      "inputs": [
        {
          "internalType": "address",
          "name": "newOwner",
          "type": "address"
        }
      ],
      "name": "transferOwnership",
      "outputs": [],
      "payable": false,
      "stateMutability": "nonpayable",
      "type": "function"
    },
    {
      "constant": true,
      "inputs": [
        {
          "internalType": "string",
          "name": "name",
          "type": "string"
        }
      ],
      "name": "valid",
      "outputs": [
        {
          "internalType": "bool",
          "name": "",
          "type": "bool"
        }
      ],
      "payable": false,
      "stateMutability": "pure",
      "type": "function"
    },
    {
      "constant": false,
      "inputs": [],
      "name": "withdraw",
      "outputs": [],
      "payable": false,
      "stateMutability": "nonpayable",
      "type": "function"
    }
  ],
  "transactionHash": "0x3d289ffcfda7cd24dc7a2a833e297323ab7e9aa4410f685ed7fd16f6a49ffdbc",
  "args": [
    "0x57f1887a8bf19b14fc0df6fd9b2acc9af147ea85",
    "0x6810dbce73c67506f785a225f818b30d8f209aab",
    60,
    86400
  ],
  "numDeployments": 1,
  "bytecode": "0x608060405234801561001057600080fd5b50604051611f8c380380611f8c8339818101604052608081101561003357600080fd5b5080516020820151604080840151606090940151600080546001600160a01b031916331780825592519495939491926001600160a01b0316917f8be0079c531659141344cd1fd0a4f28419497f9722a3daafe3b4186f6b6457e0908290a381811161009d57600080fd5b600180546001600160a01b039586166001600160a01b0319918216179091556002805494909516931692909217909255600391909155600455611ea7806100e56000396000f3fe60806040526004361061016a5760003560e01c80638d839ffe116100cb578063aeb8ce9b1161007f578063f2fde38b11610059578063f2fde38b1461075f578063f49826be1461079f578063f7a169631461086d5761016a565b8063aeb8ce9b1461066d578063ce1e09c014610720578063f14fcbc8146107355761016a565b80638f32d59b116100b05780638f32d59b146105355780639791c0971461054a578063acf1a841146105fd5761016a565b80638d839ffe146104e25780638da5cb5b146104f75761016a565b80637e3244791161012257806383e7f6ff1161010757806383e7f6ff1461038657806385f6d1551461043b5780638a95b09f146104cd5761016a565b80637e3244791461032c578063839df9451461035c5761016a565b80633d86c52f116101535780633d86c52f146101e6578063530e784f146102d7578063715018a6146103175761016a565b806301ffc9a71461016f5780633ccfd60b146101cf575b600080fd5b34801561017b57600080fd5b506101bb6004803603602081101561019257600080fd5b50357fffffffff0000000000000000000000000000000000000000000000000000000016610944565b604080519115158252519081900360200190f35b3480156101db57600080fd5b506101e4610b63565b005b3480156101f257600080fd5b506102c5600480360360a081101561020957600080fd5b81019060208101813564010000000081111561022457600080fd5b82018360208201111561023657600080fd5b8035906020019184600183028401116401000000008311171561025857600080fd5b91908080601f0160208091040260200160405190810160405280939291908181526020018383808284376000920191909152509295505073ffffffffffffffffffffffffffffffffffffffff83358116945060208401359360408101358216935060600135169050610ba3565b60408051918252519081900360200190f35b3480156102e357600080fd5b506101e4600480360360208110156102fa57600080fd5b503573ffffffffffffffffffffffffffffffffffffffff16610cdf565b34801561032357600080fd5b506101e4610d65565b34801561033857600080fd5b506101e46004803603604081101561034f57600080fd5b5080359060200135610de5565b34801561036857600080fd5b506102c56004803603602081101561037f57600080fd5b5035610e01565b34801561039257600080fd5b506102c5600480360360408110156103a957600080fd5b8101906020810181356401000000008111156103c457600080fd5b8201836020820111156103d657600080fd5b803590602001918460018302840111640100000000831117156103f857600080fd5b91908080601f0160208091040260200160405190810160405280939291908181526020018383808284376000920191909152509295505091359250610e13915050565b6101e46004803603608081101561045157600080fd5b81019060208101813564010000000081111561046c57600080fd5b82018360208201111561047e57600080fd5b803590602001918460018302840111640100000000831117156104a057600080fd5b919350915073ffffffffffffffffffffffffffffffffffffffff8135169060208101359060400135610fc3565b3480156104d957600080fd5b506102c561100e565b3480156104ee57600080fd5b506102c5611015565b34801561050357600080fd5b5061050c61101b565b6040805173ffffffffffffffffffffffffffffffffffffffff9092168252519081900360200190f35b34801561054157600080fd5b506101bb611037565b34801561055657600080fd5b506101bb6004803603602081101561056d57600080fd5b81019060208101813564010000000081111561058857600080fd5b82018360208201111561059a57600080fd5b803590602001918460018302840111640100000000831117156105bc57600080fd5b91908080601f016020809104026020016040519081016040528093929190818152602001838380828437600092019190915250929550611055945050505050565b6101e46004803603604081101561061357600080fd5b81019060208101813564010000000081111561062e57600080fd5b82018360208201111561064057600080fd5b8035906020019184600183028401116401000000008311171561066257600080fd5b91935091503561106a565b34801561067957600080fd5b506101bb6004803603602081101561069057600080fd5b8101906020810181356401000000008111156106ab57600080fd5b8201836020820111156106bd57600080fd5b803590602001918460018302840111640100000000831117156106df57600080fd5b91908080601f016020809104026020016040519081016040528093929190818152602001838380828437600092019190915250929550611252945050505050565b34801561072c57600080fd5b506102c5611312565b34801561074157600080fd5b506101e46004803603602081101561075857600080fd5b5035611318565b34801561076b57600080fd5b506101e46004803603602081101561078257600080fd5b503573ffffffffffffffffffffffffffffffffffffffff1661134a565b3480156107ab57600080fd5b506102c5600480360360608110156107c257600080fd5b8101906020810181356401000000008111156107dd57600080fd5b8201836020820111156107ef57600080fd5b8035906020019184600183028401116401000000008311171561081157600080fd5b91908080601f0160208091040260200160405190810160405280939291908181526020018383808284376000920191909152509295505073ffffffffffffffffffffffffffffffffffffffff8335169350505060200135611364565b6101e4600480360360c081101561088357600080fd5b81019060208101813564010000000081111561089e57600080fd5b8201836020820111156108b057600080fd5b803590602001918460018302840111640100000000831117156108d257600080fd5b91908080601f0160208091040260200160405190810160405280939291908181526020018383808284376000920191909152509295505073ffffffffffffffffffffffffffffffffffffffff83358116945060208401359360408101359350606081013582169250608001351661137c565b604080517f737570706f727473496e74657266616365286279746573342900000000000000815290519081900360190190206000907fffffffff0000000000000000000000000000000000000000000000000000000083811691161480610ae75750604080517f72656e657728737472696e672c75696e743235362900000000000000000000008152905190819003601501812090806028611de38239604080519182900360280182207f636f6d6d697428627974657333322900000000000000000000000000000000008352905191829003600f01822090925090806026611e0b82396026019050604051809103902060405180807f617661696c61626c6528737472696e67290000000000000000000000000000008152506011019050604051809103902060405180807f72656e74507269636528737472696e672c75696e7432353629000000000000008152506019019050604051809103902018181818187bffffffffffffffffffffffffffffffffffffffffffffffffffffffff1916827bffffffffffffffffffffffffffffffffffffffffffffffffffffffff1916145b80610b5d57506040518080611da36040913960408051918290030181209150806042611e31823960420190506040518091039020187bffffffffffffffffffffffffffffffffffffffffffffffffffffffff1916827bffffffffffffffffffffffffffffffffffffffffffffffffffffffff1916145b92915050565b610b6b611037565b610b7457600080fd5b60405133904780156108fc02916000818181858888f19350505050158015610ba0573d6000803e3d6000fd5b50565b8451602086012060009073ffffffffffffffffffffffffffffffffffffffff8416158015610be5575073ffffffffffffffffffffffffffffffffffffffff8316155b15610c4857604080516020808201939093527fffffffffffffffffffffffffffffffffffffffff000000000000000000000000606089901b1681830152605480820188905282518083039091018152607490910190915280519101209050610cd6565b73ffffffffffffffffffffffffffffffffffffffff8416610c6857600080fd5b604080516020808201939093527fffffffffffffffffffffffffffffffffffffffff000000000000000000000000606089811b82168385015287811b8216605484015286901b166068820152607c80820188905282518083039091018152609c909101909152805191012090505b95945050505050565b610ce7611037565b610cf057600080fd5b600280547fffffffffffffffffffffffff00000000000000000000000000000000000000001673ffffffffffffffffffffffffffffffffffffffff83811691909117918290556040519116907ff261845a790fe29bbd6631e2ca4a5bdc83e6eed7c3271d9590d97287e00e912390600090a250565b610d6d611037565b610d7657600080fd5b6000805460405173ffffffffffffffffffffffffffffffffffffffff909116907f8be0079c531659141344cd1fd0a4f28419497f9722a3daafe3b4186f6b6457e0908390a3600080547fffffffffffffffffffffffff0000000000000000000000000000000000000000169055565b610ded611037565b610df657600080fd5b600391909155600455565b60056020526000908152604090205481565b8151602080840191909120600254600154604080517fd6e4fa8600000000000000000000000000000000000000000000000000000000815260048101859052905160009573ffffffffffffffffffffffffffffffffffffffff948516946350e9a715948a9491169263d6e4fa8692602480840193919291829003018186803b158015610e9e57600080fd5b505afa158015610eb2573d6000803e3d6000fd5b505050506040513d6020811015610ec857600080fd5b50516040517fffffffff0000000000000000000000000000000000000000000000000000000060e085901b168152602481018290526044810188905260606004820190815283516064830152835189928291608490910190602087019080838360005b83811015610f43578181015183820152602001610f2b565b50505050905090810190601f168015610f705780820380516001836020036101000a031916815260200191505b5094505050505060206040518083038186803b158015610f8f57600080fd5b505afa158015610fa3573d6000803e3d6000fd5b505050506040513d6020811015610fb957600080fd5b5051949350505050565b61100785858080601f01602080910402602001604051908101604052809392919081815260200183838082843760009201829052508893508792508691508061137c565b5050505050565b6224ea0081565b60035481565b60005473ffffffffffffffffffffffffffffffffffffffff1690565b60005473ffffffffffffffffffffffffffffffffffffffff16331490565b6000600361106283611a7c565b101592915050565b60006110ad84848080601f016020809104026020016040519081016040528093929190818152602001838380828437600092019190915250869250610e13915050565b9050803410156110bc57600080fd5b6000848460405180838380828437604080519390910183900383206001547fc475abff00000000000000000000000000000000000000000000000000000000855260048501829052602485018b905291519097506000965073ffffffffffffffffffffffffffffffffffffffff909116945063c475abff93506044808401936020935082900301818787803b15801561115457600080fd5b505af1158015611168573d6000803e3d6000fd5b505050506040513d602081101561117e57600080fd5b50519050348310156111bb5760405133903485900380156108fc02916000818181858888f193505050501580156111b9573d6000803e3d6000fd5b505b817f3da24c024582931cfaf8267d8ed24d13a82a8068d5bd337d30ec45cea4e506ae8787868560405180806020018481526020018381526020018281038252868682818152602001925080828437600083820152604051601f9091017fffffffffffffffffffffffffffffffffffffffffffffffffffffffffffffffe01690920182900397509095505050505050a2505050505050565b8051602082012060009061126583611055565b801561130b5750600154604080517f96e494e800000000000000000000000000000000000000000000000000000000815260048101849052905173ffffffffffffffffffffffffffffffffffffffff909216916396e494e891602480820192602092909190829003018186803b1580156112de57600080fd5b505afa1580156112f2573d6000803e3d6000fd5b505050506040513d602081101561130857600080fd5b50515b9392505050565b60045481565b6004546000828152600560205260409020544291011061133757600080fd5b6000908152600560205260409020429055565b611352611037565b61135b57600080fd5b610ba081611c68565b6000611374848484600080610ba3565b949350505050565b600061138b8787868686610ba3565b9050600061139a888784611d15565b885160208a012090915080600073ffffffffffffffffffffffffffffffffffffffff8716156118a257600154604080517ffca247ac00000000000000000000000000000000000000000000000000000000815260048101859052306024820152604481018c9052905173ffffffffffffffffffffffffffffffffffffffff9092169163fca247ac916064808201926020929091908290030181600087803b15801561144457600080fd5b505af1158015611458573d6000803e3d6000fd5b505050506040513d602081101561146e57600080fd5b5051600154604080517fddf7fcb0000000000000000000000000000000000000000000000000000000008152905192935060009273ffffffffffffffffffffffffffffffffffffffff9092169163ddf7fcb091600480820192602092909190829003018186803b1580156114e157600080fd5b505afa1580156114f5573d6000803e3d6000fd5b505050506040513d602081101561150b57600080fd5b505160408051602081810193909352808201879052815180820383018152606082018084528151918501919091206001547f3f15457f00000000000000000000000000000000000000000000000000000000909252925192945073ffffffffffffffffffffffffffffffffffffffff1692633f15457f92606480840193829003018186803b15801561159c57600080fd5b505afa1580156115b0573d6000803e3d6000fd5b505050506040513d60208110156115c657600080fd5b5051604080517f1896f70a0000000000000000000000000000000000000000000000000000000081526004810184905273ffffffffffffffffffffffffffffffffffffffff8b8116602483015291519190921691631896f70a91604480830192600092919082900301818387803b15801561164057600080fd5b505af1158015611654573d6000803e3d6000fd5b5050505073ffffffffffffffffffffffffffffffffffffffff871615611714578773ffffffffffffffffffffffffffffffffffffffff1663d5fa2b0082896040518363ffffffff1660e01b8152600401808381526020018273ffffffffffffffffffffffffffffffffffffffff1673ffffffffffffffffffffffffffffffffffffffff16815260200192505050600060405180830381600087803b1580156116fb57600080fd5b505af115801561170f573d6000803e3d6000fd5b505050505b600154604080517f28ed4f6c0000000000000000000000000000000000000000000000000000000081526004810186905273ffffffffffffffffffffffffffffffffffffffff8e81166024830152915191909216916328ed4f6c91604480830192600092919082900301818387803b15801561178f57600080fd5b505af11580156117a3573d6000803e3d6000fd5b50505050600160009054906101000a900473ffffffffffffffffffffffffffffffffffffffff1673ffffffffffffffffffffffffffffffffffffffff166323b872dd308d866040518463ffffffff1660e01b8152600401808473ffffffffffffffffffffffffffffffffffffffff1673ffffffffffffffffffffffffffffffffffffffff1681526020018373ffffffffffffffffffffffffffffffffffffffff1673ffffffffffffffffffffffffffffffffffffffff1681526020018281526020019350505050600060405180830381600087803b15801561188457600080fd5b505af1158015611898573d6000803e3d6000fd5b5050505050611975565b73ffffffffffffffffffffffffffffffffffffffff8616156118c357600080fd5b600154604080517ffca247ac0000000000000000000000000000000000000000000000000000000081526004810185905273ffffffffffffffffffffffffffffffffffffffff8d81166024830152604482018d90529151919092169163fca247ac9160648083019260209291908290030181600087803b15801561194657600080fd5b505af115801561195a573d6000803e3d6000fd5b505050506040513d602081101561197057600080fd5b505190505b8973ffffffffffffffffffffffffffffffffffffffff16837fca6abbe9d7f11422cb6ca7629fbf6fe9efb1c621f71ce8f02b9f2a230097404f8d87856040518080602001848152602001838152602001828103825285818151815260200191508051906020019080838360005b838110156119fa5781810151838201526020016119e2565b50505050905090810190601f168015611a275780820380516001836020036101000a031916815260200191505b5094505050505060405180910390a383341115611a6f5760405133903486900380156108fc02916000818181858888f19350505050158015611a6d573d6000803e3d6000fd5b505b5050505050505050505050565b8051600090819081905b80821015611c5f576000858381518110611a9c57fe5b01602001517fff000000000000000000000000000000000000000000000000000000000000001690507f8000000000000000000000000000000000000000000000000000000000000000811015611af857600183019250611c53565b7fe0000000000000000000000000000000000000000000000000000000000000007fff0000000000000000000000000000000000000000000000000000000000000082161015611b4d57600283019250611c53565b7ff0000000000000000000000000000000000000000000000000000000000000007fff0000000000000000000000000000000000000000000000000000000000000082161015611ba257600383019250611c53565b7ff8000000000000000000000000000000000000000000000000000000000000007fff0000000000000000000000000000000000000000000000000000000000000082161015611bf757600483019250611c53565b7ffc000000000000000000000000000000000000000000000000000000000000007fff0000000000000000000000000000000000000000000000000000000000000082161015611c4c57600583019250611c53565b6006830192505b50600190920191611a86565b50909392505050565b73ffffffffffffffffffffffffffffffffffffffff8116611c8857600080fd5b6000805460405173ffffffffffffffffffffffffffffffffffffffff808516939216917f8be0079c531659141344cd1fd0a4f28419497f9722a3daafe3b4186f6b6457e091a3600080547fffffffffffffffffffffffff00000000000000000000000000000000000000001673ffffffffffffffffffffffffffffffffffffffff92909216919091179055565b60035460008281526005602052604081205490914291011115611d3757600080fd5b60045460008381526005602052604090205442910111611d5657600080fd5b611d5f84611252565b611d6857600080fd5b6000828152600560205260408120819055611d838585610e13565b90506224ea00841015611d9557600080fd5b8034101561137457600080fdfe6d616b65436f6d6d69746d656e7457697468436f6e66696728737472696e672c616464726573732c627974657333322c616464726573732c6164647265737329726567697374657228737472696e672c616464726573732c75696e743235362c62797465733332296d616b65436f6d6d69746d656e7428737472696e672c616464726573732c6279746573333229726567697374657257697468436f6e66696728737472696e672c616464726573732c75696e743235362c627974657333322c616464726573732c6164647265737329a265627a7a7231582053a253c3d59287a7d8afcbca61f9a34825e2003361654c7f2350c82db76d3db764736f6c63430005110032"
}