{
  "_format": "hh-sol-artifact-1",
  "contractName": "PublicResolver",
  "sourceName": "contracts/resolvers/PublicResolver.sol",
  "abi": [
    {
      "inputs": [
        {
          "internalType": "contract ENS",
          "name": "_ens",
          "type": "address"
        },
        {
          "internalType": "contract INameWrapper",
          "name": "wrapperAddress",
          "type": "address"
        },
        {
          "internalType": "address",
          "name": "_trustedETHController",
          "type": "address"
        },
        {
          "internalType": "address",
          "name": "_trustedReverseRegistrar",
          "type": "address"
        }
      ],
      "stateMutability": "nonpayable",
      "type": "constructor"
    },
    {
      "anonymous": false,
      "inputs": [
        {
          "indexed": true,
          "internalType": "bytes32",
          "name": "node",
          "type": "bytes32"
        },
        {
          "indexed": true,
          "internalType": "uint256",
          "name": "contentType",
          "type": "uint256"
        }
      ],
      "name": "ABIChanged",
      "type": "event"
    },
    {
      "anonymous": false,
      "inputs": [
        {
          "indexed": true,
          "internalType": "bytes32",
          "name": "node",
          "type": "bytes32"
        },
        {
          "indexed": false,
          "internalType": "address",
          "name": "a",
          "type": "address"
        }
      ],
      "name": "AddrChanged",
      "type": "event"
    },
    {
      "anonymous": false,
      "inputs": [
        {
          "indexed": true,
          "internalType": "bytes32",
          "name": "node",
          "type": "bytes32"
        },
        {
          "indexed": false,
          "internalType": "uint256",
          "name": "coinType",
          "type": "uint256"
        },
        {
          "indexed": false,
          "internalType": "bytes",
          "name": "newAddress",
          "type": "bytes"
        }
      ],
      "name": "AddressChanged",
      "type": "event"
    },
    {
      "anonymous": false,
      "inputs": [
        {
          "indexed": true,
          "internalType": "address",
          "name": "owner",
          "type": "address"
        },
        {
          "indexed": true,
          "internalType": "address",
          "name": "operator",
          "type": "address"
        },
        {
          "indexed": false,
          "internalType": "bool",
          "name": "approved",
          "type": "bool"
        }
      ],
      "name": "ApprovalForAll",
      "type": "event"
    },
    {
      "anonymous": false,
      "inputs": [
        {
          "indexed": false,
          "internalType": "address",
          "name": "owner",
          "type": "address"
        },
        {
          "indexed": true,
          "internalType": "bytes32",
          "name": "node",
          "type": "bytes32"
        },
        {
          "indexed": true,
          "internalType": "address",
          "name": "delegate",
          "type": "address"
        },
        {
          "indexed": true,
          "internalType": "bool",
          "name": "approved",
          "type": "bool"
        }
      ],
      "name": "Approved",
      "type": "event"
    },
    {
      "anonymous": false,
      "inputs": [
        {
          "indexed": true,
          "internalType": "bytes32",
          "name": "node",
          "type": "bytes32"
        },
        {
          "indexed": false,
          "internalType": "bytes",
          "name": "hash",
          "type": "bytes"
        }
      ],
      "name": "ContenthashChanged",
      "type": "event"
    },
    {
      "anonymous": false,
      "inputs": [
        {
          "indexed": true,
          "internalType": "bytes32",
          "name": "node",
          "type": "bytes32"
        },
        {
          "indexed": false,
          "internalType": "bytes",
          "name": "name",
          "type": "bytes"
        },
        {
          "indexed": false,
          "internalType": "uint16",
          "name": "resource",
          "type": "uint16"
        },
        {
          "indexed": false,
          "internalType": "bytes",
          "name": "record",
          "type": "bytes"
        }
      ],
      "name": "DNSRecordChanged",
      "type": "event"
    },
    {
      "anonymous": false,
      "inputs": [
        {
          "indexed": true,
          "internalType": "bytes32",
          "name": "node",
          "type": "bytes32"
        },
        {
          "indexed": false,
          "internalType": "bytes",
          "name": "name",
          "type": "bytes"
        },
        {
          "indexed": false,
          "internalType": "uint16",
          "name": "resource",
          "type": "uint16"
        }
      ],
      "name": "DNSRecordDeleted",
      "type": "event"
    },
    {
      "anonymous": false,
      "inputs": [
        {
          "indexed": true,
          "internalType": "bytes32",
          "name": "node",
          "type": "bytes32"
        },
        {
          "indexed": false,
          "internalType": "bytes",
          "name": "lastzonehash",
          "type": "bytes"
        },
        {
          "indexed": false,
          "internalType": "bytes",
          "name": "zonehash",
          "type": "bytes"
        }
      ],
      "name": "DNSZonehashChanged",
      "type": "event"
    },
    {
      "anonymous": false,
      "inputs": [
        {
          "indexed": true,
          "internalType": "bytes32",
          "name": "node",
          "type": "bytes32"
        },
        {
          "indexed": true,
          "internalType": "bytes4",
          "name": "interfaceID",
          "type": "bytes4"
        },
        {
          "indexed": false,
          "internalType": "address",
          "name": "implementer",
          "type": "address"
        }
      ],
      "name": "InterfaceChanged",
      "type": "event"
    },
    {
      "anonymous": false,
      "inputs": [
        {
          "indexed": true,
          "internalType": "bytes32",
          "name": "node",
          "type": "bytes32"
        },
        {
          "indexed": false,
          "internalType": "string",
          "name": "name",
          "type": "string"
        }
      ],
      "name": "NameChanged",
      "type": "event"
    },
    {
      "anonymous": false,
      "inputs": [
        {
          "indexed": true,
          "internalType": "bytes32",
          "name": "node",
          "type": "bytes32"
        },
        {
          "indexed": false,
          "internalType": "bytes32",
          "name": "x",
          "type": "bytes32"
        },
        {
          "indexed": false,
          "internalType": "bytes32",
          "name": "y",
          "type": "bytes32"
        }
      ],
      "name": "PubkeyChanged",
      "type": "event"
    },
    {
      "anonymous": false,
      "inputs": [
        {
          "indexed": true,
          "internalType": "bytes32",
          "name": "node",
          "type": "bytes32"
        },
        {
          "indexed": true,
          "internalType": "string",
          "name": "indexedKey",
          "type": "string"
        },
        {
          "indexed": false,
          "internalType": "string",
          "name": "key",
          "type": "string"
        },
        {
          "indexed": false,
          "internalType": "string",
          "name": "value",
          "type": "string"
        }
      ],
      "name": "TextChanged",
      "type": "event"
    },
    {
      "anonymous": false,
      "inputs": [
        {
          "indexed": true,
          "internalType": "bytes32",
          "name": "node",
          "type": "bytes32"
        },
        {
          "indexed": false,
          "internalType": "uint64",
          "name": "newVersion",
          "type": "uint64"
        }
      ],
      "name": "VersionChanged",
      "type": "event"
    },
    {
      "inputs": [
        {
          "internalType": "bytes32",
          "name": "node",
          "type": "bytes32"
        },
        {
          "internalType": "uint256",
          "name": "contentTypes",
          "type": "uint256"
        }
      ],
      "name": "ABI",
      "outputs": [
        {
          "internalType": "uint256",
          "name": "",
          "type": "uint256"
        },
        {
          "internalType": "bytes",
          "name": "",
          "type": "bytes"
        }
      ],
      "stateMutability": "view",
      "type": "function"
    },
    {
      "inputs": [
        {
          "internalType": "bytes32",
          "name": "node",
          "type": "bytes32"
        }
      ],
      "name": "addr",
      "outputs": [
        {
          "internalType": "address payable",
          "name": "",
          "type": "address"
        }
      ],
      "stateMutability": "view",
      "type": "function"
    },
    {
      "inputs": [
        {
          "internalType": "bytes32",
          "name": "node",
          "type": "bytes32"
        },
        {
          "internalType": "uint256",
          "name": "coinType",
          "type": "uint256"
        }
      ],
      "name": "addr",
      "outputs": [
        {
          "internalType": "bytes",
          "name": "",
          "type": "bytes"
        }
      ],
      "stateMutability": "view",
      "type": "function"
    },
    {
      "inputs": [
        {
          "internalType": "bytes32",
          "name": "node",
          "type": "bytes32"
        },
        {
          "internalType": "address",
          "name": "delegate",
          "type": "address"
        },
        {
          "internalType": "bool",
          "name": "approved",
          "type": "bool"
        }
      ],
      "name": "approve",
      "outputs": [],
      "stateMutability": "nonpayable",
      "type": "function"
    },
    {
      "inputs": [
        {
          "internalType": "bytes32",
          "name": "node",
          "type": "bytes32"
        }
      ],
      "name": "clearRecords",
      "outputs": [],
      "stateMutability": "nonpayable",
      "type": "function"
    },
    {
      "inputs": [
        {
          "internalType": "bytes32",
          "name": "node",
          "type": "bytes32"
        }
      ],
      "name": "contenthash",
      "outputs": [
        {
          "internalType": "bytes",
          "name": "",
          "type": "bytes"
        }
      ],
      "stateMutability": "view",
      "type": "function"
    },
    {
      "inputs": [
        {
          "internalType": "bytes32",
          "name": "node",
          "type": "bytes32"
        },
        {
          "internalType": "bytes32",
          "name": "name",
          "type": "bytes32"
        },
        {
          "internalType": "uint16",
          "name": "resource",
          "type": "uint16"
        }
      ],
      "name": "dnsRecord",
      "outputs": [
        {
          "internalType": "bytes",
          "name": "",
          "type": "bytes"
        }
      ],
      "stateMutability": "view",
      "type": "function"
    },
    {
      "inputs": [
        {
          "internalType": "bytes32",
          "name": "node",
          "type": "bytes32"
        },
        {
          "internalType": "bytes32",
          "name": "name",
          "type": "bytes32"
        }
      ],
      "name": "hasDNSRecords",
      "outputs": [
        {
          "internalType": "bool",
          "name": "",
          "type": "bool"
        }
      ],
      "stateMutability": "view",
      "type": "function"
    },
    {
      "inputs": [
        {
          "internalType": "bytes32",
          "name": "node",
          "type": "bytes32"
        },
        {
          "internalType": "bytes4",
          "name": "interfaceID",
          "type": "bytes4"
        }
      ],
      "name": "interfaceImplementer",
      "outputs": [
        {
          "internalType": "address",
          "name": "",
          "type": "address"
        }
      ],
      "stateMutability": "view",
      "type": "function"
    },
    {
      "inputs": [
        {
          "internalType": "address",
          "name": "owner",
          "type": "address"
        },
        {
          "internalType": "bytes32",
          "name": "node",
          "type": "bytes32"
        },
        {
          "internalType": "address",
          "name": "delegate",
          "type": "address"
        }
      ],
      "name": "isApprovedFor",
      "outputs": [
        {
          "internalType": "bool",
          "name": "",
          "type": "bool"
        }
      ],
      "stateMutability": "view",
      "type": "function"
    },
    {
      "inputs": [
        {
          "internalType": "address",
          "name": "account",
          "type": "address"
        },
        {
          "internalType": "address",
          "name": "operator",
          "type": "address"
        }
      ],
      "name": "isApprovedForAll",
      "outputs": [
        {
          "internalType": "bool",
          "name": "",
          "type": "bool"
        }
      ],
      "stateMutability": "view",
      "type": "function"
    },
    {
      "inputs": [
        {
          "internalType": "bytes[]",
          "name": "data",
          "type": "bytes[]"
        }
      ],
      "name": "multicall",
      "outputs": [
        {
          "internalType": "bytes[]",
          "name": "results",
          "type": "bytes[]"
        }
      ],
      "stateMutability": "nonpayable",
      "type": "function"
    },
    {
      "inputs": [
        {
          "internalType": "bytes32",
          "name": "nodehash",
          "type": "bytes32"
        },
        {
          "internalType": "bytes[]",
          "name": "data",
          "type": "bytes[]"
        }
      ],
      "name": "multicallWithNodeCheck",
      "outputs": [
        {
          "internalType": "bytes[]",
          "name": "results",
          "type": "bytes[]"
        }
      ],
      "stateMutability": "nonpayable",
      "type": "function"
    },
    {
      "inputs": [
        {
          "internalType": "bytes32",
          "name": "node",
          "type": "bytes32"
        }
      ],
      "name": "name",
      "outputs": [
        {
          "internalType": "string",
          "name": "",
          "type": "string"
        }
      ],
      "stateMutability": "view",
      "type": "function"
    },
    {
      "inputs": [
        {
          "internalType": "bytes32",
          "name": "node",
          "type": "bytes32"
        }
      ],
      "name": "pubkey",
      "outputs": [
        {
          "internalType": "bytes32",
          "name": "x",
          "type": "bytes32"
        },
        {
          "internalType": "bytes32",
          "name": "y",
          "type": "bytes32"
        }
      ],
      "stateMutability": "view",
      "type": "function"
    },
    {
      "inputs": [
        {
          "internalType": "bytes32",
          "name": "",
          "type": "bytes32"
        }
      ],
      "name": "recordVersions",
      "outputs": [
        {
          "internalType": "uint64",
          "name": "",
          "type": "uint64"
        }
      ],
      "stateMutability": "view",
      "type": "function"
    },
    {
      "inputs": [
        {
          "internalType": "bytes32",
          "name": "node",
          "type": "bytes32"
        },
        {
          "internalType": "uint256",
          "name": "contentType",
          "type": "uint256"
        },
        {
          "internalType": "bytes",
          "name": "data",
          "type": "bytes"
        }
      ],
      "name": "setABI",
      "outputs": [],
      "stateMutability": "nonpayable",
      "type": "function"
    },
    {
      "inputs": [
        {
          "internalType": "bytes32",
          "name": "node",
          "type": "bytes32"
        },
        {
          "internalType": "uint256",
          "name": "coinType",
          "type": "uint256"
        },
        {
          "internalType": "bytes",
          "name": "a",
          "type": "bytes"
        }
      ],
      "name": "setAddr",
      "outputs": [],
      "stateMutability": "nonpayable",
      "type": "function"
    },
    {
      "inputs": [
        {
          "internalType": "bytes32",
          "name": "node",
          "type": "bytes32"
        },
        {
          "internalType": "address",
          "name": "a",
          "type": "address"
        }
      ],
      "name": "setAddr",
      "outputs": [],
      "stateMutability": "nonpayable",
      "type": "function"
    },
    {
      "inputs": [
        {
          "internalType": "address",
          "name": "operator",
          "type": "address"
        },
        {
          "internalType": "bool",
          "name": "approved",
          "type": "bool"
        }
      ],
      "name": "setApprovalForAll",
      "outputs": [],
      "stateMutability": "nonpayable",
      "type": "function"
    },
    {
      "inputs": [
        {
          "internalType": "bytes32",
          "name": "node",
          "type": "bytes32"
        },
        {
          "internalType": "bytes",
          "name": "hash",
          "type": "bytes"
        }
      ],
      "name": "setContenthash",
      "outputs": [],
      "stateMutability": "nonpayable",
      "type": "function"
    },
    {
      "inputs": [
        {
          "internalType": "bytes32",
          "name": "node",
          "type": "bytes32"
        },
        {
          "internalType": "bytes",
          "name": "data",
          "type": "bytes"
        }
      ],
      "name": "setDNSRecords",
      "outputs": [],
      "stateMutability": "nonpayable",
      "type": "function"
    },
    {
      "inputs": [
        {
          "internalType": "bytes32",
          "name": "node",
          "type": "bytes32"
        },
        {
          "internalType": "bytes4",
          "name": "interfaceID",
          "type": "bytes4"
        },
        {
          "internalType": "address",
          "name": "implementer",
          "type": "address"
        }
      ],
      "name": "setInterface",
      "outputs": [],
      "stateMutability": "nonpayable",
      "type": "function"
    },
    {
      "inputs": [
        {
          "internalType": "bytes32",
          "name": "node",
          "type": "bytes32"
        },
        {
          "internalType": "string",
          "name": "newName",
          "type": "string"
        }
      ],
      "name": "setName",
      "outputs": [],
      "stateMutability": "nonpayable",
      "type": "function"
    },
    {
      "inputs": [
        {
          "internalType": "bytes32",
          "name": "node",
          "type": "bytes32"
        },
        {
          "internalType": "bytes32",
          "name": "x",
          "type": "bytes32"
        },
        {
          "internalType": "bytes32",
          "name": "y",
          "type": "bytes32"
        }
      ],
      "name": "setPubkey",
      "outputs": [],
      "stateMutability": "nonpayable",
      "type": "function"
    },
    {
      "inputs": [
        {
          "internalType": "bytes32",
          "name": "node",
          "type": "bytes32"
        },
        {
          "internalType": "string",
          "name": "key",
          "type": "string"
        },
        {
          "internalType": "string",
          "name": "value",
          "type": "string"
        }
      ],
      "name": "setText",
      "outputs": [],
      "stateMutability": "nonpayable",
      "type": "function"
    },
    {
      "inputs": [
        {
          "internalType": "bytes32",
          "name": "node",
          "type": "bytes32"
        },
        {
          "internalType": "bytes",
          "name": "hash",
          "type": "bytes"
        }
      ],
      "name": "setZonehash",
      "outputs": [],
      "stateMutability": "nonpayable",
      "type": "function"
    },
    {
      "inputs": [
        {
          "internalType": "bytes4",
          "name": "interfaceID",
          "type": "bytes4"
        }
      ],
      "name": "supportsInterface",
      "outputs": [
        {
          "internalType": "bool",
          "name": "",
          "type": "bool"
        }
      ],
      "stateMutability": "view",
      "type": "function"
    },
    {
      "inputs": [
        {
          "internalType": "bytes32",
          "name": "node",
          "type": "bytes32"
        },
        {
          "internalType": "string",
          "name": "key",
          "type": "string"
        }
      ],
      "name": "text",
      "outputs": [
        {
          "internalType": "string",
          "name": "",
          "type": "string"
        }
      ],
      "stateMutability": "view",
      "type": "function"
    },
    {
      "inputs": [
        {
          "internalType": "bytes32",
          "name": "node",
          "type": "bytes32"
        }
      ],
      "name": "zonehash",
      "outputs": [
        {
          "internalType": "bytes",
          "name": "",
          "type": "bytes"
        }
      ],
      "stateMutability": "view",
      "type": "function"
    }
  ],
  "bytecode": "0x6101006040523480156200001257600080fd5b50604051620032943803806200329483398101604081905262000035916200017a565b6040516302571be360e01b81527f91d1777781884d03a6757a803996e38de2a42967fb37eeaca72729271025a9e26004820152849033906000906001600160a01b038416906302571be390602401602060405180830381865afa158015620000a1573d6000803e3d6000fd5b505050506040513d601f19601f82011682018060405250810190620000c79190620001e2565b604051630f41a04d60e11b81526001600160a01b03848116600483015291925090821690631e83409a906024016020604051808303816000875af115801562000114573d6000803e3d6000fd5b505050506040513d601f19601f820116820180604052508101906200013a919062000209565b5050506001600160a01b039485166080525091831660a052821660c0521660e05262000223565b6001600160a01b03811681146200017757600080fd5b50565b600080600080608085870312156200019157600080fd5b84516200019e8162000161565b6020860151909450620001b18162000161565b6040860151909350620001c48162000161565b6060860151909250620001d78162000161565b939692955090935050565b600060208284031215620001f557600080fd5b8151620002028162000161565b9392505050565b6000602082840312156200021c57600080fd5b5051919050565b60805160a05160c05160e0516130306200026460003960006117d7015260006117a50152600081816118af01526119150152600061183801526130306000f3fe608060405234801561001057600080fd5b50600436106101da5760003560e01c80638b95dd7111610104578063c8690233116100a2578063e32954eb11610071578063e32954eb14610504578063e59d895d14610517578063e985e9c51461052a578063f1cb7e061461056657600080fd5b8063c869023314610442578063ce3decdc1461049b578063d5fa2b00146104ae578063d700ff33146104c157600080fd5b8063a8fa5682116100de578063a8fa5682146103b8578063a9784b3e146103cb578063ac9650d81461040f578063bc1c58d11461042f57600080fd5b80638b95dd711461037f578063a22cb46514610392578063a4b91a01146103a557600080fd5b80633603d7581161017c5780635c98042b1161014b5780635c98042b14610333578063623195b014610346578063691f343114610359578063773722131461036c57600080fd5b80633603d758146102a15780633b3b57de146102b45780634cbf6ba4146102c757806359d1d43c1461031357600080fd5b8063124a319c116101b8578063124a319c1461022f5780632203ab561461025a57806329cd62ea1461027b578063304e6ade1461028e57600080fd5b806301ffc9a7146101df5780630af179d71461020757806310f13a8c1461021c575b600080fd5b6101f26101ed366004612529565b610579565b60405190151581526020015b60405180910390f35b61021a610215366004612586565b61058a565b005b61021a61022a3660046125d2565b610794565b61024261023d36600461264c565b610861565b6040516001600160a01b0390911681526020016101fe565b61026d610268366004612678565b610b0d565b6040516101fe9291906126ea565b61021a610289366004612703565b610c44565b61021a61029c366004612586565b610cdf565b61021a6102af36600461272f565b610d5b565b6102426102c236600461272f565b610dfe565b6101f26102d5366004612678565b6000828152602081815260408083205467ffffffffffffffff1683526006825280832094835293815283822092825291909152205461ffff16151590565b610326610321366004612586565b610e30565b6040516101fe9190612748565b61032661034136600461272f565b610f10565b61021a61035436600461275b565b610fcf565b61032661036736600461272f565b61106c565b61021a61037a366004612586565b6110a6565b61021a61038d3660046127c4565b611122565b61021a6103a03660046128ad565b611202565b61021a6103b33660046128d9565b6112f1565b6103266103c6366004612917565b6113be565b6101f26103d9366004612957565b6001600160a01b039283166000908152600c60209081526040808320948352938152838220929094168152925290205460ff1690565b61042261041d3660046129d3565b61140c565b6040516101fe9190612a15565b61032661043d36600461272f565b61141a565b61048661045036600461272f565b6000818152602081815260408083205467ffffffffffffffff168352600982528083209383529290522080546001909101549091565b604080519283526020830191909152016101fe565b61021a6104a9366004612586565b611454565b61021a6104bc366004612a77565b611597565b6104eb6104cf36600461272f565b60006020819052908152604090205467ffffffffffffffff1681565b60405167ffffffffffffffff90911681526020016101fe565b610422610512366004612aa7565b6115be565b61021a610525366004612ae6565b6115d3565b6101f2610538366004612b1b565b6001600160a01b039182166000908152600b6020908152604080832093909416825291909152205460ff1690565b610326610574366004612678565b611692565b60006105848261175a565b92915050565b8261059481611798565b61059d57600080fd5b600084815260208181526040808320548151601f870184900484028101840190925285825283926060928392859267ffffffffffffffff9091169183916106039183918d908d908190840183828082843760009201919091525092939250506119ff9050565b90505b8051516020820151101561072d578661ffff1660000361066b578060400151965061063081611a60565b9450846040516020016106439190612b49565b60405160208183030381529060405280519060200120925061066481611a81565b935061071f565b600061067682611a60565b9050816040015161ffff168861ffff1614158061069a57506106988682611a9d565b155b1561071d576106f68c878a8e8e8080601f016020809104026020016040519081016040528093929190818152602001838380828437600092019190915250505060208801518d91506106ed908290612b7b565b8b51158a611abb565b81604001519750816020015196508095508580519060200120935061071a82611a81565b94505b505b61072881611d28565b610606565b50835115610788576107888a85888c8c8080601f0160208091040260200160405190810160405280939291908181526020018383808284376000920191909152508c925061077f91508290508f612b7b565b89511588611abb565b50505050505050505050565b8461079e81611798565b6107a757600080fd5b6000868152602081815260408083205467ffffffffffffffff168352600a8252808320898452909152908190209051849184916107e79089908990612b8e565b90815260200160405180910390209182610802929190612c26565b508484604051610813929190612b8e565b6040518091039020867f448bc014f1536726cf8d54ff3d6481ed3cbc683c2591ca204274009afa09b1a1878787876040516108519493929190612d0f565b60405180910390a3505050505050565b6000828152602081815260408083205467ffffffffffffffff1683526007825280832085845282528083206001600160e01b0319851684529091528120546001600160a01b031680156108b5579050610584565b60006108c085610dfe565b90506001600160a01b0381166108db57600092505050610584565b6040516301ffc9a760e01b602482015260009081906001600160a01b0384169060440160408051601f198184030181529181526020820180517bffffffffffffffffffffffffffffffffffffffffffffffffffffffff166301ffc9a760e01b179052516109489190612b49565b600060405180830381855afa9150503d8060008114610983576040519150601f19603f3d011682016040523d82523d6000602084013e610988565b606091505b509150915081158061099b575060208151105b806109dd575080601f815181106109b4576109b4612d41565b01602001517fff0000000000000000000000000000000000000000000000000000000000000016155b156109ef576000945050505050610584565b6040516001600160e01b0319871660248201526001600160a01b0384169060440160408051601f198184030181529181526020820180517bffffffffffffffffffffffffffffffffffffffffffffffffffffffff166301ffc9a760e01b17905251610a5a9190612b49565b600060405180830381855afa9150503d8060008114610a95576040519150601f19603f3d011682016040523d82523d6000602084013e610a9a565b606091505b509092509050811580610aae575060208151105b80610af0575080601f81518110610ac757610ac7612d41565b01602001517fff0000000000000000000000000000000000000000000000000000000000000016155b15610b02576000945050505050610584565b509095945050505050565b6000828152602081815260408083205467ffffffffffffffff168352600180835281842086855290925282206060915b848111610c245780851615801590610b6d575060008181526020839052604081208054610b6990612b9e565b9050115b15610c1c5780826000838152602001908152602001600020808054610b9190612b9e565b80601f0160208091040260200160405190810160405280929190818152602001828054610bbd90612b9e565b8015610c0a5780601f10610bdf57610100808354040283529160200191610c0a565b820191906000526020600020905b815481529060010190602001808311610bed57829003601f168201915b50505050509050935093505050610c3d565b60011b610b3d565b5060006040518060200160405280600081525092509250505b9250929050565b82610c4e81611798565b610c5757600080fd5b604080518082018252848152602080820185815260008881528083528481205467ffffffffffffffff1681526009835284812089825283528490209251835551600190920191909155815185815290810184905285917f1d6f5e03d3f63eb58751986629a5439baee5079ff04f345becb66e23eb154e4691015b60405180910390a250505050565b82610ce981611798565b610cf257600080fd5b6000848152602081815260408083205467ffffffffffffffff168352600382528083208784529091529020610d28838583612c26565b50837fe379c1624ed7e714cc0937528a32359d69d5281337765313dba4e081b72d75788484604051610cd1929190612d57565b80610d6581611798565b610d6e57600080fd5b6000828152602081905260408120805467ffffffffffffffff1691610d9283612d6b565b82546101009290920a67ffffffffffffffff818102199093169183160217909155600084815260208181526040918290205491519190921681528492507fc6621ccb8f3f5a04bb6502154b2caf6adf5983fe76dfef1cfc9c42e3579db444910160405180910390a25050565b600080610e0c83603c611692565b90508051600003610e205750600092915050565b610e2981611e10565b9392505050565b6000838152602081815260408083205467ffffffffffffffff168352600a825280832086845290915290819020905160609190610e709085908590612b8e565b90815260200160405180910390208054610e8990612b9e565b80601f0160208091040260200160405190810160405280929190818152602001828054610eb590612b9e565b8015610f025780601f10610ed757610100808354040283529160200191610f02565b820191906000526020600020905b815481529060010190602001808311610ee557829003601f168201915b505050505090509392505050565b6000818152602081815260408083205467ffffffffffffffff168352600482528083208484529091529020805460609190610f4a90612b9e565b80601f0160208091040260200160405190810160405280929190818152602001828054610f7690612b9e565b8015610fc35780601f10610f9857610100808354040283529160200191610fc3565b820191906000526020600020905b815481529060010190602001808311610fa657829003601f168201915b50505050509050919050565b83610fd981611798565b610fe257600080fd5b83610fee600182612b7b565b1615610ff957600080fd5b6000858152602081815260408083205467ffffffffffffffff1683526001825280832088845282528083208784529091529020611037838583612c26565b50604051849086907faa121bbeef5f32f5961a2a28966e769023910fc9479059ee3495d4c1a696efe390600090a35050505050565b6000818152602081815260408083205467ffffffffffffffff168352600882528083208484529091529020805460609190610f4a90612b9e565b826110b081611798565b6110b957600080fd5b6000848152602081815260408083205467ffffffffffffffff1683526008825280832087845290915290206110ef838583612c26565b50837fb7d29e911041e8d9b843369e890bcb72c9388692ba48b65ac54e7214c4c348f78484604051610cd1929190612d57565b8261112c81611798565b61113557600080fd5b837f65412581168e88a1e60c6459d7f44ae83ad0832e670826c05a4e2476b57af75284846040516111679291906126ea565b60405180910390a2603c83036111be57837f52d7d861f09ab3d26239d492e8968629f95e9e318cf0b73bfddc441522a15fd26111a284611e10565b6040516001600160a01b03909116815260200160405180910390a25b6000848152602081815260408083205467ffffffffffffffff16835260028252808320878452825280832086845290915290206111fb8382612d92565b5050505050565b6001600160a01b03821633036112855760405162461bcd60e51b815260206004820152602960248201527f455243313135353a2073657474696e6720617070726f76616c2073746174757360448201527f20666f722073656c66000000000000000000000000000000000000000000000060648201526084015b60405180910390fd5b336000818152600b602090815260408083206001600160a01b03871680855290835292819020805460ff191686151590811790915590519081529192917f17307eab39ab6107e8899845ad3d59bd9653f200f220920489ca2b5937696c31910160405180910390a35050565b6001600160a01b03821633036113495760405162461bcd60e51b815260206004820181905260248201527f53657474696e672064656c65676174652073746174757320666f722073656c66604482015260640161127c565b336000818152600c6020908152604080832087845282528083206001600160a01b03871680855290835292819020805460ff191686151590811790915590519384529286917ff0ddb3b04746704017f9aa8bd728fcc2c1d11675041205350018915f5e4750a0910160405180910390a4505050565b6000838152602081815260408083205467ffffffffffffffff168352600582528083208684528252808320858452825280832061ffff851684529091529020805460609190610e8990612b9e565b6060610e2960008484611e38565b6000818152602081815260408083205467ffffffffffffffff168352600382528083208484529091529020805460609190610f4a90612b9e565b8261145e81611798565b61146757600080fd5b6000848152602081815260408083205467ffffffffffffffff1680845260048352818420888552909252822080549192916114a190612b9e565b80601f01602080910402602001604051908101604052809291908181526020018280546114cd90612b9e565b801561151a5780601f106114ef5761010080835404028352916020019161151a565b820191906000526020600020905b8154815290600101906020018083116114fd57829003601f168201915b5050505067ffffffffffffffff841660009081526004602090815260408083208b845290915290209192506115529050858783612c26565b50857f8f15ed4b723ef428f250961da8315675b507046737e19319fc1a4d81bfe87f8582878760405161158793929190612e52565b60405180910390a2505050505050565b816115a181611798565b6115aa57600080fd5b6115b983603c61038d85612011565b505050565b60606115cb848484611e38565b949350505050565b826115dd81611798565b6115e657600080fd5b6000848152602081815260408083205467ffffffffffffffff1683526007825280832087845282528083206001600160e01b031987168085529083529281902080547fffffffffffffffffffffffff0000000000000000000000000000000000000000166001600160a01b038716908117909155905190815286917f7c69f06bea0bdef565b709e93a147836b0063ba2dd89f02d0b7e8d931e6a6daa910160405180910390a350505050565b6000828152602081815260408083205467ffffffffffffffff16835260028252808320858452825280832084845290915290208054606091906116d490612b9e565b80601f016020809104026020016040519081016040528092919081815260200182805461170090612b9e565b801561174d5780601f106117225761010080835404028352916020019161174d565b820191906000526020600020905b81548152906001019060200180831161173057829003601f168201915b5050505050905092915050565b60006001600160e01b031982167f59d1d43c00000000000000000000000000000000000000000000000000000000148061058457506105848261204a565b6000336001600160a01b037f00000000000000000000000000000000000000000000000000000000000000001614806117f95750336001600160a01b037f000000000000000000000000000000000000000000000000000000000000000016145b1561180657506001919050565b6040517f02571be3000000000000000000000000000000000000000000000000000000008152600481018390526000907f00000000000000000000000000000000000000000000000000000000000000006001600160a01b0316906302571be390602401602060405180830381865afa158015611887573d6000803e3d6000fd5b505050506040513d601f19601f820116820180604052508101906118ab9190612e82565b90507f00000000000000000000000000000000000000000000000000000000000000006001600160a01b0316816001600160a01b03160361198b576040517f6352211e000000000000000000000000000000000000000000000000000000008152600481018490527f00000000000000000000000000000000000000000000000000000000000000006001600160a01b031690636352211e90602401602060405180830381865afa158015611964573d6000803e3d6000fd5b505050506040513d601f19601f820116820180604052508101906119889190612e82565b90505b6001600160a01b0381163314806119c557506001600160a01b0381166000908152600b6020908152604080832033845290915290205460ff165b80610e2957506001600160a01b0381166000908152600c60209081526040808320868452825280832033845290915290205460ff16610e29565b611a4d6040518060e001604052806060815260200160008152602001600061ffff168152602001600061ffff168152602001600063ffffffff16815260200160008152602001600081525090565b82815260c0810182905261058481611d28565b6020810151815160609161058491611a789082612088565b845191906120e2565b60a081015160c082015160609161058491611a78908290612b7b565b600081518351148015610e295750610e298360008460008751612159565b865160208801206000611acf8787876120e2565b90508315611bf95767ffffffffffffffff831660009081526005602090815260408083208d84528252808320858452825280832061ffff8c16845290915290208054611b1a90612b9e565b159050611b795767ffffffffffffffff831660009081526006602090815260408083208d845282528083208584529091528120805461ffff1691611b5d83612e9f565b91906101000a81548161ffff021916908361ffff160217905550505b67ffffffffffffffff831660009081526005602090815260408083208d84528252808320858452825280832061ffff8c1684529091528120611bba916124b6565b897f03528ed0c2a3ebc993b12ce3c16bb382f9c7d88ef7d8a1bf290eaf35955a12078a8a604051611bec929190612ebd565b60405180910390a2610788565b67ffffffffffffffff831660009081526005602090815260408083208d84528252808320858452825280832061ffff8c16845290915290208054611c3c90612b9e565b9050600003611c9d5767ffffffffffffffff831660009081526006602090815260408083208d845282528083208584529091528120805461ffff1691611c8183612ee3565b91906101000a81548161ffff021916908361ffff160217905550505b67ffffffffffffffff831660009081526005602090815260408083208d84528252808320858452825280832061ffff8c1684529091529020611cdf8282612d92565b50897f52a608b3303a48862d07a73d82fa221318c0027fbbcfb1b2329bface3f19ff2b8a8a84604051611d1493929190612efa565b60405180910390a250505050505050505050565b60c08101516020820181905281515111611d3f5750565b6000611d5382600001518360200151612088565b8260200151611d629190612f29565b8251909150611d71908261217c565b61ffff166040830152611d85600282612f29565b8251909150611d94908261217c565b61ffff166060830152611da8600282612f29565b8251909150611db790826121a4565b63ffffffff166080830152611dcd600482612f29565b8251909150600090611ddf908361217c565b61ffff169050611df0600283612f29565b60a084018190529150611e038183612f29565b60c0909301929092525050565b60008151601414611e2057600080fd5b50602001516c01000000000000000000000000900490565b60608167ffffffffffffffff811115611e5357611e536127ae565b604051908082528060200260200182016040528015611e8657816020015b6060815260200190600190039081611e715790505b50905060005b82811015612009578415611f51576000848483818110611eae57611eae612d41565b9050602002810190611ec09190612f3c565b611ecf91602491600491612f83565b611ed891612fad565b9050858114611f4f5760405162461bcd60e51b815260206004820152603460248201527f6d756c746963616c6c3a20416c6c207265636f726473206d757374206861766560448201527f2061206d61746368696e67206e616d6568617368000000000000000000000000606482015260840161127c565b505b60008030868685818110611f6757611f67612d41565b9050602002810190611f799190612f3c565b604051611f87929190612b8e565b600060405180830381855af49150503d8060008114611fc2576040519150601f19603f3d011682016040523d82523d6000602084013e611fc7565b606091505b509150915081611fd657600080fd5b80848481518110611fe957611fe9612d41565b60200260200101819052505050808061200190612fcb565b915050611e8c565b509392505050565b6040805160148082528183019092526060916020820181803683375050506c010000000000000000000000009290920260208301525090565b60006001600160e01b031982167fc86902330000000000000000000000000000000000000000000000000000000014806105845750610584826121ce565b6000815b8351811061209c5761209c612fe4565b60006120a8858361220c565b60ff1690506120b8816001612f29565b6120c29083612f29565b9150806000036120d257506120d8565b5061208c565b6115cb8382612b7b565b82516060906120f18385612f29565b11156120fc57600080fd5b60008267ffffffffffffffff811115612117576121176127ae565b6040519080825280601f01601f191660200182016040528015612141576020820181803683370190505b50905060208082019086860101610b02828287612230565b6000612166848484612286565b612171878785612286565b149695505050505050565b815160009061218c836002612f29565b111561219757600080fd5b50016002015161ffff1690565b81516000906121b4836004612f29565b11156121bf57600080fd5b50016004015163ffffffff1690565b60006001600160e01b031982167f691f34310000000000000000000000000000000000000000000000000000000014806105845750610584826122aa565b600082828151811061222057612220612d41565b016020015160f81c905092915050565b602081106122685781518352612247602084612f29565b9250612254602083612f29565b9150612261602082612b7b565b9050612230565b905182516020929092036101000a6000190180199091169116179052565b82516000906122958385612f29565b11156122a057600080fd5b5091016020012090565b60006001600160e01b031982167f124a319c00000000000000000000000000000000000000000000000000000000148061058457506105848260006001600160e01b031982167fa8fa568200000000000000000000000000000000000000000000000000000000148061234657506001600160e01b031982167f5c98042b00000000000000000000000000000000000000000000000000000000145b8061058457506105848260006001600160e01b031982167fbc1c58d100000000000000000000000000000000000000000000000000000000148061058457506105848260006001600160e01b031982167f3b3b57de0000000000000000000000000000000000000000000000000000000014806123ec57506001600160e01b031982167ff1cb7e0600000000000000000000000000000000000000000000000000000000145b8061058457506105848260006001600160e01b031982167f2203ab5600000000000000000000000000000000000000000000000000000000148061058457506105848260006001600160e01b031982167fd700ff3300000000000000000000000000000000000000000000000000000000148061058457506105848260006001600160e01b031982167f4fbf043300000000000000000000000000000000000000000000000000000000148061058457506301ffc9a760e01b6001600160e01b0319831614610584565b5080546124c290612b9e565b6000825580601f106124d2575050565b601f0160209004906000526020600020908101906124f091906124f3565b50565b5b8082111561250857600081556001016124f4565b5090565b80356001600160e01b03198116811461252457600080fd5b919050565b60006020828403121561253b57600080fd5b610e298261250c565b60008083601f84011261255657600080fd5b50813567ffffffffffffffff81111561256e57600080fd5b602083019150836020828501011115610c3d57600080fd5b60008060006040848603121561259b57600080fd5b83359250602084013567ffffffffffffffff8111156125b957600080fd5b6125c586828701612544565b9497909650939450505050565b6000806000806000606086880312156125ea57600080fd5b85359450602086013567ffffffffffffffff8082111561260957600080fd5b61261589838a01612544565b9096509450604088013591508082111561262e57600080fd5b5061263b88828901612544565b969995985093965092949392505050565b6000806040838503121561265f57600080fd5b8235915061266f6020840161250c565b90509250929050565b6000806040838503121561268b57600080fd5b50508035926020909101359150565b60005b838110156126b557818101518382015260200161269d565b50506000910152565b600081518084526126d681602086016020860161269a565b601f01601f19169290920160200192915050565b8281526040602082015260006115cb60408301846126be565b60008060006060848603121561271857600080fd5b505081359360208301359350604090920135919050565b60006020828403121561274157600080fd5b5035919050565b602081526000610e2960208301846126be565b6000806000806060858703121561277157600080fd5b8435935060208501359250604085013567ffffffffffffffff81111561279657600080fd5b6127a287828801612544565b95989497509550505050565b634e487b7160e01b600052604160045260246000fd5b6000806000606084860312156127d957600080fd5b8335925060208401359150604084013567ffffffffffffffff808211156127ff57600080fd5b818601915086601f83011261281357600080fd5b813581811115612825576128256127ae565b604051601f8201601f19908116603f0116810190838211818310171561284d5761284d6127ae565b8160405282815289602084870101111561286657600080fd5b8260208601602083013760006020848301015280955050505050509250925092565b6001600160a01b03811681146124f057600080fd5b8035801515811461252457600080fd5b600080604083850312156128c057600080fd5b82356128cb81612888565b915061266f6020840161289d565b6000806000606084860312156128ee57600080fd5b83359250602084013561290081612888565b915061290e6040850161289d565b90509250925092565b60008060006060848603121561292c57600080fd5b8335925060208401359150604084013561ffff8116811461294c57600080fd5b809150509250925092565b60008060006060848603121561296c57600080fd5b833561297781612888565b925060208401359150604084013561294c81612888565b60008083601f8401126129a057600080fd5b50813567ffffffffffffffff8111156129b857600080fd5b6020830191508360208260051b8501011115610c3d57600080fd5b600080602083850312156129e657600080fd5b823567ffffffffffffffff8111156129fd57600080fd5b612a098582860161298e565b90969095509350505050565b6000602080830181845280855180835260408601915060408160051b870101925083870160005b82811015612a6a57603f19888603018452612a588583516126be565b94509285019290850190600101612a3c565b5092979650505050505050565b60008060408385031215612a8a57600080fd5b823591506020830135612a9c81612888565b809150509250929050565b600080600060408486031215612abc57600080fd5b83359250602084013567ffffffffffffffff811115612ada57600080fd5b6125c58682870161298e565b600080600060608486031215612afb57600080fd5b83359250612b0b6020850161250c565b9150604084013561294c81612888565b60008060408385031215612b2e57600080fd5b8235612b3981612888565b91506020830135612a9c81612888565b60008251612b5b81846020870161269a565b9190910192915050565b634e487b7160e01b600052601160045260246000fd5b8181038181111561058457610584612b65565b8183823760009101908152919050565b600181811c90821680612bb257607f821691505b602082108103612bd257634e487b7160e01b600052602260045260246000fd5b50919050565b601f8211156115b957600081815260208120601f850160051c81016020861015612bff5750805b601f850160051c820191505b81811015612c1e57828155600101612c0b565b505050505050565b67ffffffffffffffff831115612c3e57612c3e6127ae565b612c5283612c4c8354612b9e565b83612bd8565b6000601f841160018114612c865760008515612c6e5750838201355b600019600387901b1c1916600186901b1783556111fb565b600083815260209020601f19861690835b82811015612cb75786850135825560209485019460019092019101612c97565b5086821015612cd45760001960f88860031b161c19848701351681555b505060018560011b0183555050505050565b81835281816020850137506000828201602090810191909152601f909101601f19169091010190565b604081526000612d23604083018688612ce6565b8281036020840152612d36818587612ce6565b979650505050505050565b634e487b7160e01b600052603260045260246000fd5b6020815260006115cb602083018486612ce6565b600067ffffffffffffffff808316818103612d8857612d88612b65565b6001019392505050565b815167ffffffffffffffff811115612dac57612dac6127ae565b612dc081612dba8454612b9e565b84612bd8565b602080601f831160018114612df55760008415612ddd5750858301515b600019600386901b1c1916600185901b178555612c1e565b600085815260208120601f198616915b82811015612e2457888601518255948401946001909101908401612e05565b5085821015612e425787850151600019600388901b60f8161c191681555b5050505050600190811b01905550565b604081526000612e6560408301866126be565b8281036020840152612e78818587612ce6565b9695505050505050565b600060208284031215612e9457600080fd5b8151610e2981612888565b600061ffff821680612eb357612eb3612b65565b6000190192915050565b604081526000612ed060408301856126be565b905061ffff831660208301529392505050565b600061ffff808316818103612d8857612d88612b65565b606081526000612f0d60608301866126be565b61ffff851660208401528281036040840152612e7881856126be565b8082018082111561058457610584612b65565b6000808335601e19843603018112612f5357600080fd5b83018035915067ffffffffffffffff821115612f6e57600080fd5b602001915036819003821315610c3d57600080fd5b60008085851115612f9357600080fd5b83861115612fa057600080fd5b5050820193919092039150565b8035602083101561058457600019602084900360031b1b1692915050565b600060018201612fdd57612fdd612b65565b5060010190565b634e487b7160e01b600052600160045260246000fdfea2646970667358221220d9ca00d1374e5631020f7d8d485abed43370951a4de50c681182cd53d0fbd02564736f6c63430008110033",
  "linkReferences": {},
  "deployedLinkReferences": {}
}